{
  "contractName": "DiamondNFT",
  "abi": [
    {
      "inputs": [
        {
          "internalType": "address",
          "name": "initialOwner",
          "type": "address"
        }
      ],
      "stateMutability": "nonpayable",
      "type": "constructor"
    },
    {
      "inputs": [
        {
          "internalType": "address",
          "name": "sender",
          "type": "address"
        },
        {
          "internalType": "uint256",
          "name": "tokenId",
          "type": "uint256"
        },
        {
          "internalType": "address",
          "name": "owner",
          "type": "address"
        }
      ],
      "name": "ERC721IncorrectOwner",
      "type": "error"
    },
    {
      "inputs": [
        {
          "internalType": "address",
          "name": "operator",
          "type": "address"
        },
        {
          "internalType": "uint256",
          "name": "tokenId",
          "type": "uint256"
        }
      ],
      "name": "ERC721InsufficientApproval",
      "type": "error"
    },
    {
      "inputs": [
        {
          "internalType": "address",
          "name": "approver",
          "type": "address"
        }
      ],
      "name": "ERC721InvalidApprover",
      "type": "error"
    },
    {
      "inputs": [
        {
          "internalType": "address",
          "name": "operator",
          "type": "address"
        }
      ],
      "name": "ERC721InvalidOperator",
      "type": "error"
    },
    {
      "inputs": [
        {
          "internalType": "address",
          "name": "owner",
          "type": "address"
        }
      ],
      "name": "ERC721InvalidOwner",
      "type": "error"
    },
    {
      "inputs": [
        {
          "internalType": "address",
          "name": "receiver",
          "type": "address"
        }
      ],
      "name": "ERC721InvalidReceiver",
      "type": "error"
    },
    {
      "inputs": [
        {
          "internalType": "address",
          "name": "sender",
          "type": "address"
        }
      ],
      "name": "ERC721InvalidSender",
      "type": "error"
    },
    {
      "inputs": [
        {
          "internalType": "uint256",
          "name": "tokenId",
          "type": "uint256"
        }
      ],
      "name": "ERC721NonexistentToken",
      "type": "error"
    },
    {
      "inputs": [
        {
          "internalType": "address",
          "name": "owner",
          "type": "address"
        }
      ],
      "name": "OwnableInvalidOwner",
      "type": "error"
    },
    {
      "inputs": [
        {
          "internalType": "address",
          "name": "account",
          "type": "address"
        }
      ],
      "name": "OwnableUnauthorizedAccount",
      "type": "error"
    },
    {
      "anonymous": false,
      "inputs": [
        {
          "indexed": true,
          "internalType": "address",
          "name": "owner",
          "type": "address"
        },
        {
          "indexed": true,
          "internalType": "address",
          "name": "approved",
          "type": "address"
        },
        {
          "indexed": true,
          "internalType": "uint256",
          "name": "tokenId",
          "type": "uint256"
        }
      ],
      "name": "Approval",
      "type": "event"
    },
    {
      "anonymous": false,
      "inputs": [
        {
          "indexed": true,
          "internalType": "address",
          "name": "owner",
          "type": "address"
        },
        {
          "indexed": true,
          "internalType": "address",
          "name": "operator",
          "type": "address"
        },
        {
          "indexed": false,
          "internalType": "bool",
          "name": "approved",
          "type": "bool"
        }
      ],
      "name": "ApprovalForAll",
      "type": "event"
    },
    {
      "anonymous": false,
      "inputs": [
        {
          "indexed": true,
          "internalType": "uint256",
          "name": "tokenId",
          "type": "uint256"
        },
        {
          "indexed": true,
          "internalType": "address",
          "name": "owner",
          "type": "address"
        },
        {
          "indexed": false,
          "internalType": "string",
          "name": "certificateNumber",
          "type": "string"
        }
      ],
      "name": "DiamondMinted",
      "type": "event"
    },
    {
      "anonymous": false,
      "inputs": [
        {
          "indexed": true,
          "internalType": "address",
          "name": "previousOwner",
          "type": "address"
        },
        {
          "indexed": true,
          "internalType": "address",
          "name": "newOwner",
          "type": "address"
        }
      ],
      "name": "OwnershipTransferred",
      "type": "event"
    },
    {
      "anonymous": false,
      "inputs": [
        {
          "indexed": true,
          "internalType": "address",
          "name": "from",
          "type": "address"
        },
        {
          "indexed": true,
          "internalType": "address",
          "name": "to",
          "type": "address"
        },
        {
          "indexed": true,
          "internalType": "uint256",
          "name": "tokenId",
          "type": "uint256"
        }
      ],
      "name": "Transfer",
      "type": "event"
    },
    {
      "inputs": [
        {
          "internalType": "address",
          "name": "to",
          "type": "address"
        },
        {
          "internalType": "uint256",
          "name": "tokenId",
          "type": "uint256"
        }
      ],
      "name": "approve",
      "outputs": [],
      "stateMutability": "nonpayable",
      "type": "function"
    },
    {
      "inputs": [
        {
          "internalType": "address",
          "name": "owner",
          "type": "address"
        }
      ],
      "name": "balanceOf",
      "outputs": [
        {
          "internalType": "uint256",
          "name": "",
          "type": "uint256"
        }
      ],
      "stateMutability": "view",
      "type": "function",
      "constant": true
    },
    {
      "inputs": [
        {
          "internalType": "string",
          "name": "",
          "type": "string"
        }
      ],
      "name": "certificateToTokenId",
      "outputs": [
        {
          "internalType": "uint256",
          "name": "",
          "type": "uint256"
        }
      ],
      "stateMutability": "view",
      "type": "function",
      "constant": true
    },
    {
      "inputs": [],
      "name": "diamondLendingContract",
      "outputs": [
        {
          "internalType": "address",
          "name": "",
          "type": "address"
        }
      ],
      "stateMutability": "view",
      "type": "function",
      "constant": true
    },
    {
      "inputs": [
        {
          "internalType": "uint256",
          "name": "tokenId",
          "type": "uint256"
        }
      ],
      "name": "getApproved",
      "outputs": [
        {
          "internalType": "address",
          "name": "",
          "type": "address"
        }
      ],
      "stateMutability": "view",
      "type": "function",
      "constant": true
    },
    {
      "inputs": [
        {
          "internalType": "address",
          "name": "owner",
          "type": "address"
        },
        {
          "internalType": "address",
          "name": "operator",
          "type": "address"
        }
      ],
      "name": "isApprovedForAll",
      "outputs": [
        {
          "internalType": "bool",
          "name": "",
          "type": "bool"
        }
      ],
      "stateMutability": "view",
      "type": "function",
      "constant": true
    },
    {
      "inputs": [],
      "name": "name",
      "outputs": [
        {
          "internalType": "string",
          "name": "",
          "type": "string"
        }
      ],
      "stateMutability": "view",
      "type": "function",
      "constant": true
    },
    {
      "inputs": [],
      "name": "owner",
      "outputs": [
        {
          "internalType": "address",
          "name": "",
          "type": "address"
        }
      ],
      "stateMutability": "view",
      "type": "function",
      "constant": true
    },
    {
      "inputs": [
        {
          "internalType": "uint256",
          "name": "tokenId",
          "type": "uint256"
        }
      ],
      "name": "ownerOf",
      "outputs": [
        {
          "internalType": "address",
          "name": "",
          "type": "address"
        }
      ],
      "stateMutability": "view",
      "type": "function",
      "constant": true
    },
    {
      "inputs": [],
      "name": "renounceOwnership",
      "outputs": [],
      "stateMutability": "nonpayable",
      "type": "function"
    },
    {
      "inputs": [
        {
          "internalType": "address",
          "name": "from",
          "type": "address"
        },
        {
          "internalType": "address",
          "name": "to",
          "type": "address"
        },
        {
          "internalType": "uint256",
          "name": "tokenId",
          "type": "uint256"
        }
      ],
      "name": "safeTransferFrom",
      "outputs": [],
      "stateMutability": "nonpayable",
      "type": "function"
    },
    {
      "inputs": [
        {
          "internalType": "address",
          "name": "from",
          "type": "address"
        },
        {
          "internalType": "address",
          "name": "to",
          "type": "address"
        },
        {
          "internalType": "uint256",
          "name": "tokenId",
          "type": "uint256"
        },
        {
          "internalType": "bytes",
          "name": "data",
          "type": "bytes"
        }
      ],
      "name": "safeTransferFrom",
      "outputs": [],
      "stateMutability": "nonpayable",
      "type": "function"
    },
    {
      "inputs": [
        {
          "internalType": "address",
          "name": "operator",
          "type": "address"
        },
        {
          "internalType": "bool",
          "name": "approved",
          "type": "bool"
        }
      ],
      "name": "setApprovalForAll",
      "outputs": [],
      "stateMutability": "nonpayable",
      "type": "function"
    },
    {
      "inputs": [
        {
          "internalType": "bytes4",
          "name": "interfaceId",
          "type": "bytes4"
        }
      ],
      "name": "supportsInterface",
      "outputs": [
        {
          "internalType": "bool",
          "name": "",
          "type": "bool"
        }
      ],
      "stateMutability": "view",
      "type": "function",
      "constant": true
    },
    {
      "inputs": [],
      "name": "symbol",
      "outputs": [
        {
          "internalType": "string",
          "name": "",
          "type": "string"
        }
      ],
      "stateMutability": "view",
      "type": "function",
      "constant": true
    },
    {
      "inputs": [
        {
          "internalType": "uint256",
          "name": "",
          "type": "uint256"
        }
      ],
      "name": "tokenIdToCertificate",
      "outputs": [
        {
          "internalType": "string",
          "name": "",
          "type": "string"
        }
      ],
      "stateMutability": "view",
      "type": "function",
      "constant": true
    },
    {
      "inputs": [
        {
          "internalType": "address",
          "name": "from",
          "type": "address"
        },
        {
          "internalType": "address",
          "name": "to",
          "type": "address"
        },
        {
          "internalType": "uint256",
          "name": "tokenId",
          "type": "uint256"
        }
      ],
      "name": "transferFrom",
      "outputs": [],
      "stateMutability": "nonpayable",
      "type": "function"
    },
    {
      "inputs": [
        {
          "internalType": "address",
          "name": "newOwner",
          "type": "address"
        }
      ],
      "name": "transferOwnership",
      "outputs": [],
      "stateMutability": "nonpayable",
      "type": "function"
    },
    {
      "inputs": [
        {
          "internalType": "address",
          "name": "_diamondLendingContract",
          "type": "address"
        }
      ],
      "name": "setDiamondLendingContract",
      "outputs": [],
      "stateMutability": "nonpayable",
      "type": "function"
    },
    {
      "inputs": [
        {
          "internalType": "address",
          "name": "_to",
          "type": "address"
        },
        {
          "internalType": "string",
          "name": "_certificateNumber",
          "type": "string"
        }
      ],
      "name": "mintDiamond",
      "outputs": [
        {
          "internalType": "uint256",
          "name": "",
          "type": "uint256"
        }
      ],
      "stateMutability": "nonpayable",
      "type": "function"
    },
    {
      "inputs": [
        {
          "internalType": "uint256",
          "name": "tokenId",
          "type": "uint256"
        },
        {
          "internalType": "string",
          "name": "_tokenURI",
          "type": "string"
        }
      ],
      "name": "setTokenURI",
      "outputs": [],
      "stateMutability": "nonpayable",
      "type": "function"
    },
    {
      "inputs": [
        {
          "internalType": "uint256",
          "name": "tokenId",
          "type": "uint256"
        }
      ],
      "name": "tokenURI",
      "outputs": [
        {
          "internalType": "string",
          "name": "",
          "type": "string"
        }
      ],
      "stateMutability": "view",
      "type": "function",
      "constant": true
    },
    {
      "inputs": [
        {
          "internalType": "string",
          "name": "_certificateNumber",
          "type": "string"
        }
      ],
      "name": "getTokenIdByCertificate",
      "outputs": [
        {
          "internalType": "uint256",
          "name": "",
          "type": "uint256"
        }
      ],
      "stateMutability": "view",
      "type": "function",
      "constant": true
    },
    {
      "inputs": [
        {
          "internalType": "string",
          "name": "_certificateNumber",
          "type": "string"
        }
      ],
      "name": "certificateExists",
      "outputs": [
        {
          "internalType": "bool",
          "name": "",
          "type": "bool"
        }
      ],
      "stateMutability": "view",
      "type": "function",
      "constant": true
    }
  ],
  "bytecode": "0x608034620003be576001600160401b0390601f90601f1962001909388190038481018316840186811185821017620003c357849282916040528339602093849181010312620003be57516001600160a01b03948582169391849003620003be5762000069620003d9565b94600b86526a4469616d6f6e645a6f6e6560a81b838701526200008b620003d9565b600493848252631113539160e21b81830152875195848711620003a95760009687549960019a8b81811c911680156200039e575b858210146200038b5790818784931162000338575b508490878311600114620002ce578a92620002c2575b5050600019600383901b1c1916908a1b1787555b8251948511620002af5788548981811c91168015620002a4575b83821014620002915790818587969594931162000238575b5081938511600114620001d35750508592620001c7575b5050600019600383901b1c191690851b1784555b8215620001b15750600680546001600160a01b0319811684179091556040519416907f8be0079c531659141344cd1fd0a4f28419497f9722a3daafe3b4186f6b6457e09080a360075561150f9081620003fa8239f35b60249160405191631e4fbdf760e01b8352820152fd5b01519050388062000147565b899593929193168588528388209388905b8282106200021e575050841162000204575b505050811b0184556200015b565b015160001960f88460031b161c19169055388080620001f6565b8484015186558b97909501949384019390810190620001e4565b9091929394508988528288208580880160051c82019285891062000287575b9188978d9297969594930160051c01915b8281106200027857505062000130565b8a81558897508c910162000268565b9250819262000257565b634e487b7160e01b885260228752602488fd5b90607f169062000118565b634e487b7160e01b875260418652602487fd5b015190503880620000ea565b90848d9416918b8052868c20928c5b88828210620003185750508411620002fe575b505050811b018755620000fe565b015160001960f88460031b161c19169055388080620002f0565b91929395968291958786015181550195019301908e9594939291620002dd565b909150898052848a208780850160051c82019287861062000381575b918e91869594930160051c01915b82811062000372575050620000d4565b8c81558594508e910162000362565b9250819262000354565b634e487b7160e01b8a526022895260248afd5b90607f1690620000bf565b604186634e487b7160e01b6000525260246000fd5b600080fd5b634e487b7160e01b600052604160045260246000fd5b60408051919082016001600160401b03811183821017620003c35760405256fe6080604081815260048036101561001557600080fd5b600092833560e01c90816301ffc9a714610e82575080630655f03714610e3557806306fdde0314610d8d578063081812fc14610d52578063095ea7b314610c76578063162094c414610ab257806323b872dd14610a9a57806342842e0e14610a715780635971314014610a2c5780636352211e146109fb57806365f594d61461099e5780636bd5b15f1461099e57806370a0823114610949578063715018a6146108e95780638da5cb5b146108c057806395d89b41146107dd578063a22cb46514610740578063b88d4fde146106d8578063c87b56dd14610670578063dcfc457214610630578063e985e9c5146105e2578063eaf45d39146105b5578063f0cff917146101bd5763f2fde38b1461012b57600080fd5b346101b95760203660031901126101b957610144611000565b9061014d611141565b6001600160a01b039182169283156101a3575050600654826bffffffffffffffffffffffff60a01b821617600655167f8be0079c531659141344cd1fd0a4f28419497f9722a3daafe3b4186f6b6457e08380a380f35b51631e4fbdf760e01b8152908101849052602490fd5b8280fd5b5090346101b957806003193601126101b9576101d7611000565b9267ffffffffffffffff92602480358581116105b1576101fa9036908401610f9a565b600b546001600160a01b039491939190851633036105615783511561051f578551978451906020998a8181890194610233818388610fb8565b81016008815203019020546104dd576007549860001992838b146104cb57908a6102738d8c95948b60019788860160075551938492839251928391610fb8565b81016008815203019020558a855260098c528985209088519081116104b957908992918d6102a18354611061565b601f8111610462575b50508d80601f83116001146103f357508790826103e8575b508682871b9260031b1c19161790555b169687156103d35789845260028b528884205416801515928a928992918d866103a0575b505082865260038d528a86208054909101905582855260028c5289852080546001600160a01b031916831790557fddf252ad1be2c89b69c2b068fc378daa952ba7f163c4a11628f55a4df523b3ef8580a461038e575050507fdb87f9edc7b886f249cc1b541a526e5405adc3693006a0962802fb3b5b9e1df26103858592855191829189835289830190610fdb565b0390a351908152f35b85516339e3563760e11b815291820152fd5b600086815260046020526040902080546001600160a01b0319169055600390848952528b8720908154019055388d6102f6565b505050855191633250574960e11b8352820152fd5b90508a0151386102c2565b869291601f198316858b528d838c20938c915b83831061043a575050508311610423575b5050811b0190556102d2565b8c01518860f88460031b161c191690553880610417565b81948294969181999394989a9b9c50015181550195019301918894928f98979694928f610406565b90919280949550885281882090601f840160051c82019284106104af575b8c9594939291601f88920160051c01915b8281106104a157508f91506102aa565b8981558d9650879101610491565b9091508190610480565b634e487b7160e01b8652604187528786fd5b634e487b7160e01b8552601186528685fd5b875162461bcd60e51b81528085018b9052601a818701527f436572746966696361746520616c7265616479206578697374730000000000006044820152606490fd5b50601b606492602087519362461bcd60e51b85528401528201527f4365727469666963617465206e756d62657220726571756972656400000000006044820152fd5b506025608492602087519362461bcd60e51b85528401528201527f4f6e6c79204469616d6f6e644c656e64696e6720636f6e74726163742063616e6044820152640818d85b1b60da1b6064820152fd5b8380fd5b5050346105de57816003193601126105de57600b5490516001600160a01b039091168152602090f35b5080fd5b5050346105de57806003193601126105de5760ff81602093610602611000565b61060a611016565b6001600160a01b0391821683526005875283832091168252855220549151911615158152f35b50346101b95760203660031901126101b9578161066c936106599235815260096020522061109b565b9051918291602083526020830190610fdb565b0390f35b509190346105de5760203660031901126105de5761066c923580835260026020526106a760018060a01b0383852054161515611496565b8252600a6020526106b981832061109b565b9181516106c581610eee565b5251918291602083526020830190610fdb565b8382346105de5760803660031901126105de576106f3611000565b6106fb611016565b9060643567ffffffffffffffff811161073c573660238201121561073c576107399381602461072f93369301359101610f5e565b916044359161130c565b80f35b8480fd5b5090346101b957806003193601126101b95761075a611000565b906024359182151580930361073c576001600160a01b03169283156107c85750338452600560205280842083855260205280842060ff1981541660ff8416179055519081527f17307eab39ab6107e8899845ad3d59bd9653f200f220920489ca2b5937696c3160203392a380f35b836024925191630b61174360e31b8352820152fd5b5050346105de57816003193601126105de5780519082600180549161080183611061565b80865292828116908115610898575060011461083c575b50505061082a8261066c940383610f20565b51918291602083526020830190610fdb565b94508085527fb10e2d527612073b26eecdfd717e6a320cf44b4afac2b0732d9fcbe2b7fa0cf65b8286106108805750505061082a82602061066c9582010194610818565b80546020878701810191909152909501948101610863565b61066c97508693506020925061082a94915060ff191682840152151560051b82010194610818565b5050346105de57816003193601126105de5760065490516001600160a01b039091168152602090f35b8334610946578060031936011261094657610902611141565b600680546001600160a01b0319811690915581906001600160a01b03167f8be0079c531659141344cd1fd0a4f28419497f9722a3daafe3b4186f6b6457e08280a380f35b80fd5b509134610946576020366003190112610946576001600160a01b0361096c611000565b169283156109895750806020938392526003845220549051908152f35b91516322718ad960e21b815291820152602490fd5b5091346109465760203660031901126109465782359067ffffffffffffffff8211610946575060206109d781946109e993369101610f9a565b81845193828580945193849201610fb8565b81016008815203019020549051908152f35b5091346109465760203660031901126109465750610a1b6020923561145b565b90516001600160a01b039091168152f35b833461094657602036600319011261094657610a46611000565b610a4e611141565b60018060a01b03166bffffffffffffffffffffffff60a01b600b541617600b5580f35b5050346105de5761073990610a853661102c565b91925192610a9284610eee565b85845261130c565b833461094657610739610aac3661102c565b9161116d565b508290346105de57826003193601126105de5767ffffffffffffffff813560243582811161073c57610ae79036908501610f9a565b9460018060a01b0391826006541633148015610c69575b15610c3557808652610b1c6020936002855283882054161515611496565b8552600a82528420928551928311610c225750610b398354611061565b601f8111610bdf575b5080601f8311600114610b7d5750839482939492610b72575b50508160011b916000199060031b1c191617905580f35b015190508480610b5b565b90601f198316958486528286209286905b888210610bc757505083600195969710610bae575b505050811b01905580f35b015160001960f88460031b161c19169055848080610ba3565b80600185968294968601518155019501930190610b8e565b838552818520601f840160051c810191838510610c18575b601f0160051c01905b818110610c0d5750610b42565b858155600101610c00565b9091508190610bf7565b634e487b7160e01b855260419052602484fd5b815162461bcd60e51b8152602081870152600e60248201526d139bdd08185d5d1a1bdc9a5e995960921b6044820152606490fd5b5082600b54163314610afe565b5090346101b957806003193601126101b957610c90611000565b91602435610c9d8161145b565b33151580610d3f575b80610d16575b610d00576001600160a01b039485169482918691167f8c5be1e5ebec7d5bd14f71427d1e84f3dd0314c0f7b2291e5b200ac8c7c3b9258880a48452602052822080546001600160a01b031916909117905580f35b835163a9fbf51f60e01b81523381850152602490fd5b506001600160a01b03811686526005602090815284872033885290528386205460ff1615610cac565b506001600160a01b038116331415610ca6565b50346101b95760203660031901126101b957918260209335610d738161145b565b50825283528190205490516001600160a01b039091168152f35b5050346105de57816003193601126105de57805190828054610dae81611061565b808552916001918083169081156108985750600114610dd95750505061082a8261066c940383610f20565b80809650527f290decd9548b62a8d60345a988386fc84ba6bc95484008f6362f93160ef3e5635b828610610e1d5750505061082a82602061066c9582010194610818565b80546020878701810191909152909501948101610e00565b5091346109465760203660031901126109465782359067ffffffffffffffff8211610946575060206109d78194610e6e93369101610f9a565b810160088152030190205415159051908152f35b925050346101b95760203660031901126101b9573563ffffffff60e01b81168091036101b957602092506380ac58cd60e01b8114908115610edd575b8115610ecc575b5015158152f35b6301ffc9a760e01b14905038610ec5565b635b5e139f60e01b81149150610ebe565b6020810190811067ffffffffffffffff821117610f0a57604052565b634e487b7160e01b600052604160045260246000fd5b90601f8019910116810190811067ffffffffffffffff821117610f0a57604052565b67ffffffffffffffff8111610f0a57601f01601f191660200190565b929192610f6a82610f42565b91610f786040519384610f20565b829481845281830111610f95578281602093846000960137010152565b600080fd5b9080601f83011215610f9557816020610fb593359101610f5e565b90565b60005b838110610fcb5750506000910152565b8181015183820152602001610fbb565b90602091610ff481518092818552858086019101610fb8565b601f01601f1916010190565b600435906001600160a01b0382168203610f9557565b602435906001600160a01b0382168203610f9557565b6060906003190112610f95576001600160a01b03906004358281168103610f9557916024359081168103610f95579060443590565b90600182811c92168015611091575b602083101461107b57565b634e487b7160e01b600052602260045260246000fd5b91607f1691611070565b90604051918260008254926110af84611061565b90818452600194858116908160001461111e57506001146110db575b50506110d992500383610f20565b565b9093915060005260209081600020936000915b8183106111065750506110d9935082010138806110cb565b855488840185015294850194879450918301916110ee565b9150506110d994506020925060ff191682840152151560051b82010138806110cb565b6006546001600160a01b0316330361115557565b60405163118cdaa760e01b8152336004820152602490fd5b6001600160a01b0391821692909183156112f35760009282845282602095600287526040968488882054169687913315158061125d575b509060027fddf252ad1be2c89b69c2b068fc378daa952ba7f163c4a11628f55a4df523b3ef928461122a575b858352600381528b8320805460010190558683525289812080546001600160a01b0319168517905580a416928383036112095750505050565b6064945051926364283d7b60e01b8452600484015260248301526044820152fd5b600087815260046020526040902080546001600160a01b0319169055848352600381528b832080546000190190556111d0565b919394509150806112b2575b15611279578592918791386111a4565b878688611296576024915190637e27328960e01b82526004820152fd5b604491519063177e802f60e01b82523360048301526024820152fd5b5033871480156112d7575b806112695750858252600481523385898420541614611269565b5086825260058152878220338352815260ff88832054166112bd565b604051633250574960e11b815260006004820152602490fd5b61131783838361116d565b813b611324575b50505050565b604051630a85bd0160e11b8082523360048301526001600160a01b03928316602483015260448201949094526080606482015260209592909116939092908390611372906084830190610fdb565b039285816000958187895af184918161141b575b506113e6575050503d6000146113de573d6113a081610f42565b906113ae6040519283610f20565b81528091843d92013e5b805192836113d957604051633250574960e11b815260048101849052602490fd5b019050fd5b5060606113b8565b919450915063ffffffff60e01b160361140357503880808061131e565b60249060405190633250574960e11b82526004820152fd5b9091508681813d8311611454575b6114338183610f20565b8101031261073c57516001600160e01b03198116810361073c579038611386565b503d611429565b6000818152600260205260409020546001600160a01b031690811561147e575090565b60249060405190637e27328960e01b82526004820152fd5b1561149d57565b60405162461bcd60e51b8152602060048201526014602482015273151bdad95b88191bd95cc81b9bdd08195e1a5cdd60621b6044820152606490fdfea2646970667358221220fca42325e3bdd4a64a8a301ede53ff8612b3438859a0efef3b69c4ab26efd7ab64736f6c63430008140033",
  "immutableReferences": {},
  "source": "// SPDX-License-Identifier: MIT\r\npragma solidity ^0.8.0;\r\n\r\nimport \"@openzeppelin/contracts/token/ERC721/ERC721.sol\";\r\nimport \"@openzeppelin/contracts/access/Ownable.sol\";\r\n\r\ncontract DiamondNFT is ERC721, Ownable {\r\n    uint256 private _nextTokenId;\r\n    \r\n    // Mapping from certificate number to token ID (to prevent duplicates)\r\n    mapping(string => uint256) public certificateToTokenId;\r\n    mapping(uint256 => string) public tokenIdToCertificate;\r\n    \r\n    // Mapping for token URIs (replacing ERC721URIStorage functionality)\r\n    mapping(uint256 => string) private _tokenURIs;\r\n    \r\n    // Only the DiamondLending contract can mint\r\n    address public diamondLendingContract;\r\n    \r\n    event DiamondMinted(uint256 indexed tokenId, address indexed owner, string certificateNumber);\r\n    \r\n    modifier onlyDiamondLending() {\r\n        require(msg.sender == diamondLendingContract, \"Only DiamondLending contract can call\");\r\n        _;\r\n    }\r\n    \r\n    constructor(address initialOwner) ERC721(\"DiamondZone\", \"DMND\") Ownable(initialOwner) {\r\n        _nextTokenId = 1; // Start token IDs at 1\r\n    }\r\n    \r\n    // Set the DiamondLending contract address (only owner can set)\r\n    function setDiamondLendingContract(address _diamondLendingContract) external onlyOwner {\r\n        diamondLendingContract = _diamondLendingContract;\r\n    }\r\n    \r\n    // Mint a new diamond NFT (only callable by DiamondLending contract)\r\n    function mintDiamond(address _to, string memory _certificateNumber) \r\n        external \r\n        onlyDiamondLending \r\n        returns (uint256) \r\n    {\r\n        require(bytes(_certificateNumber).length > 0, \"Certificate number required\");\r\n        require(certificateToTokenId[_certificateNumber] == 0, \"Certificate already exists\");\r\n        \r\n        uint256 tokenId = _nextTokenId++;\r\n        \r\n        certificateToTokenId[_certificateNumber] = tokenId;\r\n        tokenIdToCertificate[tokenId] = _certificateNumber;\r\n        \r\n        _mint(_to, tokenId);\r\n        \r\n        emit DiamondMinted(tokenId, _to, _certificateNumber);\r\n        return tokenId;\r\n    }\r\n    \r\n    // Set token URI (only owner or DiamondLending contract)\r\n    function setTokenURI(uint256 tokenId, string memory _tokenURI) external {\r\n        require(msg.sender == owner() || msg.sender == diamondLendingContract, \"Not authorized\");\r\n        require(_ownerOf(tokenId) != address(0), \"Token does not exist\");\r\n        _tokenURIs[tokenId] = _tokenURI;\r\n    }\r\n    \r\n    // Override tokenURI to use our custom mapping\r\n    function tokenURI(uint256 tokenId) public view override returns (string memory) {\r\n        require(_ownerOf(tokenId) != address(0), \"Token does not exist\");\r\n        \r\n        string memory _tokenURI = _tokenURIs[tokenId];\r\n        string memory base = _baseURI();\r\n        \r\n        // If there is no base URI, return the token URI.\r\n        if (bytes(base).length == 0) {\r\n            return _tokenURI;\r\n        }\r\n        // If both are set, concatenate the baseURI and tokenURI (via string.concat).\r\n        if (bytes(_tokenURI).length > 0) {\r\n            return string.concat(base, _tokenURI);\r\n        }\r\n        \r\n        return super.tokenURI(tokenId);\r\n    }\r\n    \r\n    // Get token ID by certificate number\r\n    function getTokenIdByCertificate(string memory _certificateNumber) \r\n        external \r\n        view \r\n        returns (uint256) \r\n    {\r\n        return certificateToTokenId[_certificateNumber];\r\n    }\r\n    \r\n    // Check if certificate exists\r\n    function certificateExists(string memory _certificateNumber) \r\n        external \r\n        view \r\n        returns (bool) \r\n    {\r\n        return certificateToTokenId[_certificateNumber] != 0;\r\n    }\r\n}",
  "sourcePath": "C:\\Users\\ronig\\Diamond-Zone\\blockchain\\contracts\\DiamondNFT.sol",
  "compiler": {
    "name": "solc",
    "version": "0.8.20+commit.a1b79de6.Emscripten.clang"
  },
  "schemaVersion": "3.4.16",
  "updatedAt": "2025-08-21T13:24:28.396Z",
  "networkType": "ethereum",
  "devdoc": {
    "errors": {
      "ERC721IncorrectOwner(address,uint256,address)": [
        {
          "details": "Indicates an error related to the ownership over a particular token. Used in transfers.",
          "params": {
            "owner": "Address of the current owner of a token.",
            "sender": "Address whose tokens are being transferred.",
            "tokenId": "Identifier number of a token."
          }
        }
      ],
      "ERC721InsufficientApproval(address,uint256)": [
        {
          "details": "Indicates a failure with the `operator`s approval. Used in transfers.",
          "params": {
            "operator": "Address that may be allowed to operate on tokens without being their owner.",
            "tokenId": "Identifier number of a token."
          }
        }
      ],
      "ERC721InvalidApprover(address)": [
        {
          "details": "Indicates a failure with the `approver` of a token to be approved. Used in approvals.",
          "params": {
            "approver": "Address initiating an approval operation."
          }
        }
      ],
      "ERC721InvalidOperator(address)": [
        {
          "details": "Indicates a failure with the `operator` to be approved. Used in approvals.",
          "params": {
            "operator": "Address that may be allowed to operate on tokens without being their owner."
          }
        }
      ],
      "ERC721InvalidOwner(address)": [
        {
          "details": "Indicates that an address can't be an owner. For example, `address(0)` is a forbidden owner in ERC-20. Used in balance queries.",
          "params": {
            "owner": "Address of the current owner of a token."
          }
        }
      ],
      "ERC721InvalidReceiver(address)": [
        {
          "details": "Indicates a failure with the token `receiver`. Used in transfers.",
          "params": {
            "receiver": "Address to which tokens are being transferred."
          }
        }
      ],
      "ERC721InvalidSender(address)": [
        {
          "details": "Indicates a failure with the token `sender`. Used in transfers.",
          "params": {
            "sender": "Address whose tokens are being transferred."
          }
        }
      ],
      "ERC721NonexistentToken(uint256)": [
        {
          "details": "Indicates a `tokenId` whose `owner` is the zero address.",
          "params": {
            "tokenId": "Identifier number of a token."
          }
        }
      ],
      "OwnableInvalidOwner(address)": [
        {
          "details": "The owner is not a valid owner account. (eg. `address(0)`)"
        }
      ],
      "OwnableUnauthorizedAccount(address)": [
        {
          "details": "The caller account is not authorized to perform an operation."
        }
      ]
    },
    "events": {
      "Approval(address,address,uint256)": {
        "details": "Emitted when `owner` enables `approved` to manage the `tokenId` token."
      },
      "ApprovalForAll(address,address,bool)": {
        "details": "Emitted when `owner` enables or disables (`approved`) `operator` to manage all of its assets."
      },
      "Transfer(address,address,uint256)": {
        "details": "Emitted when `tokenId` token is transferred from `from` to `to`."
      }
    },
    "kind": "dev",
    "methods": {
      "approve(address,uint256)": {
        "details": "See {IERC721-approve}."
      },
      "balanceOf(address)": {
        "details": "See {IERC721-balanceOf}."
      },
      "getApproved(uint256)": {
        "details": "See {IERC721-getApproved}."
      },
      "isApprovedForAll(address,address)": {
        "details": "See {IERC721-isApprovedForAll}."
      },
      "name()": {
        "details": "See {IERC721Metadata-name}."
      },
      "owner()": {
        "details": "Returns the address of the current owner."
      },
      "ownerOf(uint256)": {
        "details": "See {IERC721-ownerOf}."
      },
      "renounceOwnership()": {
        "details": "Leaves the contract without owner. It will not be possible to call `onlyOwner` functions. Can only be called by the current owner. NOTE: Renouncing ownership will leave the contract without an owner, thereby disabling any functionality that is only available to the owner."
      },
      "safeTransferFrom(address,address,uint256)": {
        "details": "See {IERC721-safeTransferFrom}."
      },
      "safeTransferFrom(address,address,uint256,bytes)": {
        "details": "See {IERC721-safeTransferFrom}."
      },
      "setApprovalForAll(address,bool)": {
        "details": "See {IERC721-setApprovalForAll}."
      },
      "supportsInterface(bytes4)": {
        "details": "See {IERC165-supportsInterface}."
      },
      "symbol()": {
        "details": "See {IERC721Metadata-symbol}."
      },
      "tokenURI(uint256)": {
        "details": "See {IERC721Metadata-tokenURI}."
      },
      "transferFrom(address,address,uint256)": {
        "details": "See {IERC721-transferFrom}."
      },
      "transferOwnership(address)": {
        "details": "Transfers ownership of the contract to a new account (`newOwner`). Can only be called by the current owner."
      }
    },
    "version": 1
  },
  "userdoc": {
    "kind": "user",
    "methods": {},
    "version": 1
  }
}