{
  "contractName": "DiamondLending",
  "abi": [
    {
      "inputs": [
        {
          "internalType": "address",
          "name": "_diamondNFTAddress",
          "type": "address"
        }
      ],
      "stateMutability": "nonpayable",
      "type": "constructor"
    },
    {
      "anonymous": false,
      "inputs": [
        {
          "indexed": true,
          "internalType": "uint256",
          "name": "contractId",
          "type": "uint256"
        },
        {
          "indexed": true,
          "internalType": "address",
          "name": "approver",
          "type": "address"
        },
        {
          "indexed": true,
          "internalType": "bytes32",
          "name": "contractHash",
          "type": "bytes32"
        }
      ],
      "name": "ContractApproved",
      "type": "event"
    },
    {
      "anonymous": false,
      "inputs": [
        {
          "indexed": true,
          "internalType": "uint256",
          "name": "tokenId",
          "type": "uint256"
        },
        {
          "indexed": true,
          "internalType": "address",
          "name": "owner",
          "type": "address"
        },
        {
          "indexed": false,
          "internalType": "string",
          "name": "certificateNumber",
          "type": "string"
        }
      ],
      "name": "DiamondAdded",
      "type": "event"
    },
    {
      "anonymous": false,
      "inputs": [
        {
          "indexed": true,
          "internalType": "uint256",
          "name": "loanId",
          "type": "uint256"
        }
      ],
      "name": "DiamondReturned",
      "type": "event"
    },
    {
      "anonymous": false,
      "inputs": [
        {
          "indexed": true,
          "internalType": "uint256",
          "name": "loanId",
          "type": "uint256"
        },
        {
          "indexed": true,
          "internalType": "uint256",
          "name": "offerId",
          "type": "uint256"
        },
        {
          "indexed": false,
          "internalType": "address",
          "name": "buyer",
          "type": "address"
        },
        {
          "indexed": false,
          "internalType": "uint256",
          "name": "amount",
          "type": "uint256"
        }
      ],
      "name": "DiamondSold",
      "type": "event"
    },
    {
      "anonymous": false,
      "inputs": [
        {
          "indexed": true,
          "internalType": "uint256",
          "name": "loanId",
          "type": "uint256"
        },
        {
          "indexed": true,
          "internalType": "address",
          "name": "lender",
          "type": "address"
        }
      ],
      "name": "LoanApproved",
      "type": "event"
    },
    {
      "anonymous": false,
      "inputs": [
        {
          "indexed": true,
          "internalType": "uint256",
          "name": "loanId",
          "type": "uint256"
        }
      ],
      "name": "LoanCancelled",
      "type": "event"
    },
    {
      "anonymous": false,
      "inputs": [
        {
          "indexed": true,
          "internalType": "uint256",
          "name": "loanId",
          "type": "uint256"
        },
        {
          "indexed": true,
          "internalType": "uint256",
          "name": "diamondTokenId",
          "type": "uint256"
        },
        {
          "indexed": true,
          "internalType": "address",
          "name": "borrower",
          "type": "address"
        },
        {
          "indexed": false,
          "internalType": "bytes32",
          "name": "qrCodeHash",
          "type": "bytes32"
        }
      ],
      "name": "LoanRequested",
      "type": "event"
    },
    {
      "anonymous": false,
      "inputs": [
        {
          "indexed": true,
          "internalType": "uint256",
          "name": "offerId",
          "type": "uint256"
        },
        {
          "indexed": true,
          "internalType": "uint256",
          "name": "loanId",
          "type": "uint256"
        }
      ],
      "name": "OfferAccepted",
      "type": "event"
    },
    {
      "anonymous": false,
      "inputs": [
        {
          "indexed": true,
          "internalType": "uint256",
          "name": "offerId",
          "type": "uint256"
        },
        {
          "indexed": true,
          "internalType": "uint256",
          "name": "loanId",
          "type": "uint256"
        },
        {
          "indexed": true,
          "internalType": "address",
          "name": "buyer",
          "type": "address"
        },
        {
          "indexed": false,
          "internalType": "uint256",
          "name": "amount",
          "type": "uint256"
        }
      ],
      "name": "OfferPlaced",
      "type": "event"
    },
    {
      "inputs": [],
      "name": "diamondNFT",
      "outputs": [
        {
          "internalType": "contract DiamondNFT",
          "name": "",
          "type": "address"
        }
      ],
      "stateMutability": "view",
      "type": "function",
      "constant": true
    },
    {
      "inputs": [
        {
          "internalType": "uint256",
          "name": "",
          "type": "uint256"
        }
      ],
      "name": "diamonds",
      "outputs": [
        {
          "internalType": "uint256",
          "name": "tokenId",
          "type": "uint256"
        },
        {
          "internalType": "string",
          "name": "certificateNumber",
          "type": "string"
        },
        {
          "internalType": "uint256",
          "name": "weight",
          "type": "uint256"
        },
        {
          "internalType": "string",
          "name": "shape",
          "type": "string"
        },
        {
          "internalType": "string",
          "name": "color",
          "type": "string"
        },
        {
          "internalType": "string",
          "name": "clarity",
          "type": "string"
        },
        {
          "internalType": "string",
          "name": "cut",
          "type": "string"
        },
        {
          "internalType": "string",
          "name": "polish",
          "type": "string"
        },
        {
          "internalType": "string",
          "name": "symmetry",
          "type": "string"
        },
        {
          "internalType": "string",
          "name": "uv",
          "type": "string"
        },
        {
          "internalType": "uint256",
          "name": "cost",
          "type": "uint256"
        },
        {
          "internalType": "string",
          "name": "supplier",
          "type": "string"
        },
        {
          "internalType": "uint256",
          "name": "buyingDate",
          "type": "uint256"
        },
        {
          "internalType": "uint256",
          "name": "expenses",
          "type": "uint256"
        },
        {
          "internalType": "address",
          "name": "owner",
          "type": "address"
        },
        {
          "internalType": "bool",
          "name": "isAvailable",
          "type": "bool"
        }
      ],
      "stateMutability": "view",
      "type": "function",
      "constant": true
    },
    {
      "inputs": [
        {
          "internalType": "uint256",
          "name": "",
          "type": "uint256"
        },
        {
          "internalType": "uint256",
          "name": "",
          "type": "uint256"
        }
      ],
      "name": "loanOffers",
      "outputs": [
        {
          "internalType": "uint256",
          "name": "",
          "type": "uint256"
        }
      ],
      "stateMutability": "view",
      "type": "function",
      "constant": true
    },
    {
      "inputs": [
        {
          "internalType": "uint256",
          "name": "",
          "type": "uint256"
        }
      ],
      "name": "loans",
      "outputs": [
        {
          "internalType": "uint256",
          "name": "loanId",
          "type": "uint256"
        },
        {
          "internalType": "uint256",
          "name": "diamondTokenId",
          "type": "uint256"
        },
        {
          "internalType": "address",
          "name": "borrower",
          "type": "address"
        },
        {
          "internalType": "address",
          "name": "lender",
          "type": "address"
        },
        {
          "internalType": "uint256",
          "name": "loanDuration",
          "type": "uint256"
        },
        {
          "internalType": "uint256",
          "name": "createdAt",
          "type": "uint256"
        },
        {
          "internalType": "uint256",
          "name": "approvedAt",
          "type": "uint256"
        },
        {
          "internalType": "enum DiamondLending.LoanStatus",
          "name": "status",
          "type": "uint8"
        },
        {
          "internalType": "string",
          "name": "terms",
          "type": "string"
        },
        {
          "internalType": "bytes32",
          "name": "qrCodeHash",
          "type": "bytes32"
        }
      ],
      "stateMutability": "view",
      "type": "function",
      "constant": true
    },
    {
      "inputs": [],
      "name": "nextLoanId",
      "outputs": [
        {
          "internalType": "uint256",
          "name": "",
          "type": "uint256"
        }
      ],
      "stateMutability": "view",
      "type": "function",
      "constant": true
    },
    {
      "inputs": [],
      "name": "nextOfferId",
      "outputs": [
        {
          "internalType": "uint256",
          "name": "",
          "type": "uint256"
        }
      ],
      "stateMutability": "view",
      "type": "function",
      "constant": true
    },
    {
      "inputs": [
        {
          "internalType": "uint256",
          "name": "",
          "type": "uint256"
        }
      ],
      "name": "offers",
      "outputs": [
        {
          "internalType": "uint256",
          "name": "offerId",
          "type": "uint256"
        },
        {
          "internalType": "uint256",
          "name": "loanId",
          "type": "uint256"
        },
        {
          "internalType": "address",
          "name": "buyer",
          "type": "address"
        },
        {
          "internalType": "uint256",
          "name": "offerAmount",
          "type": "uint256"
        },
        {
          "internalType": "uint256",
          "name": "createdAt",
          "type": "uint256"
        },
        {
          "internalType": "uint256",
          "name": "expiresAt",
          "type": "uint256"
        },
        {
          "internalType": "enum DiamondLending.OfferStatus",
          "name": "status",
          "type": "uint8"
        },
        {
          "internalType": "string",
          "name": "message",
          "type": "string"
        }
      ],
      "stateMutability": "view",
      "type": "function",
      "constant": true
    },
    {
      "inputs": [
        {
          "internalType": "address",
          "name": "",
          "type": "address"
        },
        {
          "internalType": "uint256",
          "name": "",
          "type": "uint256"
        }
      ],
      "name": "userLoans",
      "outputs": [
        {
          "internalType": "uint256",
          "name": "",
          "type": "uint256"
        }
      ],
      "stateMutability": "view",
      "type": "function",
      "constant": true
    },
    {
      "inputs": [
        {
          "internalType": "address",
          "name": "",
          "type": "address"
        },
        {
          "internalType": "uint256",
          "name": "",
          "type": "uint256"
        }
      ],
      "name": "userOffers",
      "outputs": [
        {
          "internalType": "uint256",
          "name": "",
          "type": "uint256"
        }
      ],
      "stateMutability": "view",
      "type": "function",
      "constant": true
    },
    {
      "inputs": [
        {
          "internalType": "string",
          "name": "_certificateNumber",
          "type": "string"
        },
        {
          "internalType": "uint256",
          "name": "_weight",
          "type": "uint256"
        },
        {
          "internalType": "string",
          "name": "_shape",
          "type": "string"
        },
        {
          "internalType": "string",
          "name": "_color",
          "type": "string"
        },
        {
          "internalType": "string",
          "name": "_clarity",
          "type": "string"
        },
        {
          "internalType": "string",
          "name": "_cut",
          "type": "string"
        },
        {
          "internalType": "string",
          "name": "_polish",
          "type": "string"
        },
        {
          "internalType": "string",
          "name": "_symmetry",
          "type": "string"
        },
        {
          "internalType": "string",
          "name": "_uv",
          "type": "string"
        },
        {
          "internalType": "uint256",
          "name": "_cost",
          "type": "uint256"
        },
        {
          "internalType": "string",
          "name": "_supplier",
          "type": "string"
        },
        {
          "internalType": "uint256",
          "name": "_buyingDate",
          "type": "uint256"
        },
        {
          "internalType": "uint256",
          "name": "_expenses",
          "type": "uint256"
        }
      ],
      "name": "addDiamond",
      "outputs": [
        {
          "internalType": "uint256",
          "name": "",
          "type": "uint256"
        }
      ],
      "stateMutability": "nonpayable",
      "type": "function"
    },
    {
      "inputs": [
        {
          "internalType": "uint256",
          "name": "_diamondTokenId",
          "type": "uint256"
        },
        {
          "internalType": "address",
          "name": "_borrower",
          "type": "address"
        },
        {
          "internalType": "uint256",
          "name": "_loanDuration",
          "type": "uint256"
        },
        {
          "internalType": "string",
          "name": "_terms",
          "type": "string"
        },
        {
          "internalType": "bytes32",
          "name": "_qrCodeHash",
          "type": "bytes32"
        }
      ],
      "name": "createLoanRequest",
      "outputs": [
        {
          "internalType": "uint256",
          "name": "",
          "type": "uint256"
        }
      ],
      "stateMutability": "nonpayable",
      "type": "function"
    },
    {
      "inputs": [
        {
          "internalType": "uint256",
          "name": "_loanId",
          "type": "uint256"
        },
        {
          "internalType": "bytes32",
          "name": "_qrCodeHash",
          "type": "bytes32"
        }
      ],
      "name": "approveLoanRequest",
      "outputs": [],
      "stateMutability": "nonpayable",
      "type": "function"
    },
    {
      "inputs": [
        {
          "internalType": "uint256",
          "name": "contractId",
          "type": "uint256"
        },
        {
          "internalType": "bytes32",
          "name": "contractHash",
          "type": "bytes32"
        }
      ],
      "name": "approveContract",
      "outputs": [],
      "stateMutability": "nonpayable",
      "type": "function"
    },
    {
      "inputs": [
        {
          "internalType": "uint256",
          "name": "_loanId",
          "type": "uint256"
        }
      ],
      "name": "cancelLoanRequest",
      "outputs": [],
      "stateMutability": "nonpayable",
      "type": "function"
    },
    {
      "inputs": [
        {
          "internalType": "uint256",
          "name": "_loanId",
          "type": "uint256"
        },
        {
          "internalType": "uint256",
          "name": "_offerAmount",
          "type": "uint256"
        },
        {
          "internalType": "uint256",
          "name": "_expirationDays",
          "type": "uint256"
        },
        {
          "internalType": "string",
          "name": "_message",
          "type": "string"
        }
      ],
      "name": "placeOffer",
      "outputs": [
        {
          "internalType": "uint256",
          "name": "",
          "type": "uint256"
        }
      ],
      "stateMutability": "nonpayable",
      "type": "function"
    },
    {
      "inputs": [
        {
          "internalType": "uint256",
          "name": "_offerId",
          "type": "uint256"
        }
      ],
      "name": "acceptOffer",
      "outputs": [],
      "stateMutability": "nonpayable",
      "type": "function"
    },
    {
      "inputs": [
        {
          "internalType": "uint256",
          "name": "_loanId",
          "type": "uint256"
        }
      ],
      "name": "returnDiamond",
      "outputs": [],
      "stateMutability": "nonpayable",
      "type": "function"
    },
    {
      "inputs": [
        {
          "internalType": "uint256",
          "name": "_tokenId",
          "type": "uint256"
        }
      ],
      "name": "getDiamond",
      "outputs": [
        {
          "components": [
            {
              "internalType": "uint256",
              "name": "tokenId",
              "type": "uint256"
            },
            {
              "internalType": "string",
              "name": "certificateNumber",
              "type": "string"
            },
            {
              "internalType": "uint256",
              "name": "weight",
              "type": "uint256"
            },
            {
              "internalType": "string",
              "name": "shape",
              "type": "string"
            },
            {
              "internalType": "string",
              "name": "color",
              "type": "string"
            },
            {
              "internalType": "string",
              "name": "clarity",
              "type": "string"
            },
            {
              "internalType": "string",
              "name": "cut",
              "type": "string"
            },
            {
              "internalType": "string",
              "name": "polish",
              "type": "string"
            },
            {
              "internalType": "string",
              "name": "symmetry",
              "type": "string"
            },
            {
              "internalType": "string",
              "name": "uv",
              "type": "string"
            },
            {
              "internalType": "uint256",
              "name": "cost",
              "type": "uint256"
            },
            {
              "internalType": "string",
              "name": "supplier",
              "type": "string"
            },
            {
              "internalType": "uint256",
              "name": "buyingDate",
              "type": "uint256"
            },
            {
              "internalType": "uint256",
              "name": "expenses",
              "type": "uint256"
            },
            {
              "internalType": "address",
              "name": "owner",
              "type": "address"
            },
            {
              "internalType": "bool",
              "name": "isAvailable",
              "type": "bool"
            }
          ],
          "internalType": "struct DiamondLending.Diamond",
          "name": "",
          "type": "tuple"
        }
      ],
      "stateMutability": "view",
      "type": "function",
      "constant": true
    },
    {
      "inputs": [
        {
          "internalType": "uint256",
          "name": "_loanId",
          "type": "uint256"
        }
      ],
      "name": "getLoan",
      "outputs": [
        {
          "components": [
            {
              "internalType": "uint256",
              "name": "loanId",
              "type": "uint256"
            },
            {
              "internalType": "uint256",
              "name": "diamondTokenId",
              "type": "uint256"
            },
            {
              "internalType": "address",
              "name": "borrower",
              "type": "address"
            },
            {
              "internalType": "address",
              "name": "lender",
              "type": "address"
            },
            {
              "internalType": "uint256",
              "name": "loanDuration",
              "type": "uint256"
            },
            {
              "internalType": "uint256",
              "name": "createdAt",
              "type": "uint256"
            },
            {
              "internalType": "uint256",
              "name": "approvedAt",
              "type": "uint256"
            },
            {
              "internalType": "enum DiamondLending.LoanStatus",
              "name": "status",
              "type": "uint8"
            },
            {
              "internalType": "string",
              "name": "terms",
              "type": "string"
            },
            {
              "internalType": "bytes32",
              "name": "qrCodeHash",
              "type": "bytes32"
            }
          ],
          "internalType": "struct DiamondLending.LoanAgreement",
          "name": "",
          "type": "tuple"
        }
      ],
      "stateMutability": "view",
      "type": "function",
      "constant": true
    },
    {
      "inputs": [
        {
          "internalType": "uint256",
          "name": "_offerId",
          "type": "uint256"
        }
      ],
      "name": "getOffer",
      "outputs": [
        {
          "components": [
            {
              "internalType": "uint256",
              "name": "offerId",
              "type": "uint256"
            },
            {
              "internalType": "uint256",
              "name": "loanId",
              "type": "uint256"
            },
            {
              "internalType": "address",
              "name": "buyer",
              "type": "address"
            },
            {
              "internalType": "uint256",
              "name": "offerAmount",
              "type": "uint256"
            },
            {
              "internalType": "uint256",
              "name": "createdAt",
              "type": "uint256"
            },
            {
              "internalType": "uint256",
              "name": "expiresAt",
              "type": "uint256"
            },
            {
              "internalType": "enum DiamondLending.OfferStatus",
              "name": "status",
              "type": "uint8"
            },
            {
              "internalType": "string",
              "name": "message",
              "type": "string"
            }
          ],
          "internalType": "struct DiamondLending.SaleOffer",
          "name": "",
          "type": "tuple"
        }
      ],
      "stateMutability": "view",
      "type": "function",
      "constant": true
    },
    {
      "inputs": [
        {
          "internalType": "address",
          "name": "_user",
          "type": "address"
        }
      ],
      "name": "getUserLoans",
      "outputs": [
        {
          "internalType": "uint256[]",
          "name": "",
          "type": "uint256[]"
        }
      ],
      "stateMutability": "view",
      "type": "function",
      "constant": true
    },
    {
      "inputs": [
        {
          "internalType": "address",
          "name": "_user",
          "type": "address"
        }
      ],
      "name": "getUserOffers",
      "outputs": [
        {
          "internalType": "uint256[]",
          "name": "",
          "type": "uint256[]"
        }
      ],
      "stateMutability": "view",
      "type": "function",
      "constant": true
    },
    {
      "inputs": [
        {
          "internalType": "uint256",
          "name": "_loanId",
          "type": "uint256"
        }
      ],
      "name": "getLoanOffers",
      "outputs": [
        {
          "internalType": "uint256[]",
          "name": "",
          "type": "uint256[]"
        }
      ],
      "stateMutability": "view",
      "type": "function",
      "constant": true
    },
    {
      "inputs": [
        {
          "internalType": "uint256",
          "name": "_loanId",
          "type": "uint256"
        }
      ],
      "name": "isLoanActive",
      "outputs": [
        {
          "internalType": "bool",
          "name": "",
          "type": "bool"
        }
      ],
      "stateMutability": "view",
      "type": "function",
      "constant": true
    },
    {
      "inputs": [
        {
          "internalType": "uint256",
          "name": "_tokenId",
          "type": "uint256"
        }
      ],
      "name": "isDiamondAvailable",
      "outputs": [
        {
          "internalType": "bool",
          "name": "",
          "type": "bool"
        }
      ],
      "stateMutability": "view",
      "type": "function",
      "constant": true
    }
  ],
  "bytecode": "0x60803461007e57601f62002ef138819003918201601f19168301916001600160401b038311848410176100835780849260209460405283398101031261007e57516001600160a01b0381169081900361007e576001808055600255600080546001600160a01b031916919091179055604051612e5790816200009a8239f35b600080fd5b634e487b7160e01b600052604160045260246000fdfe608080604052600436101561001357600080fd5b60003560e01c90816302bf321f14612a3a575080633951e09b1461289f5780634579268a1461276b578063504006ca146125db57806353cd6e82146124775780635a6803671461231c5780635f5d0655146122fe578063661d2c2c14612286578063666a81cf1461224f57806385b3d89614611ea857806387c5145914611e8a5780638a72ea6a14611dec57806395bf23da14611db45780639aed64e014611d3a578063a9a2096e146118dc578063b03590be1461189d578063b441722f14610b06578063bd5fec6514610abc578063c815729d146107b7578063cfdf66011461078e578063d8bad5bd14610744578063debf65e514610517578063e1ec3c681461045a578063e3ed14db1461017e5763fa2a49d41461013257600080fd5b34610179576040366003190112610179576024356004356000526008602052604060002080548210156101795760209161016b91612d1a565b90546040519160031b1c8152f35b600080fd5b346101795760203660031901126101795760006101e06040516101a081612b71565b8281526060602082015282604082015260608082015260606080820152606060a0820152606060c0820152606060e08201526060610100820152606061012082015282610140820152606061016082015282610180820152826101a0820152826101c082015201526004356000526003602052604060208160002060ff600e84519261022b84612b71565b8054845261023b60018201612bae565b8585015260028101548685015261025460038201612bae565b606085015261026560048201612bae565b608085015261027660058201612bae565b60a085015261028760068201612bae565b60c085015261029860078201612bae565b60e08501526102a960088201612bae565b6101008501526102bb60098201612bae565b610120850152600a8101546101408501526102d8600b8201612bae565b610160850152600c810154610180850152600d8101546101a0850152015460018060a01b0381166101c084015260a01c1615156101e08201526101e06104216103fd6103e56103cd6103b66103a061038a6103746103538a6102008e519e8f9e8f9381855280518286015201519201526102208d0190612c54565b60408b015160608d015260608b01518c6080601f1982850301910152612c54565b60808a01518b8203601f190160a08d0152612c54565b60a08901518a8203601f190160c08c0152612c54565b60c0880151898203601f190160e08b0152612c54565b60e0870151888203601f19016101008a0152612c54565b610100860151878203601f1901610120890152612c54565b610120850151868203601f1901610140880152612c54565b610140840151610160860152610160840151601f1986830301610180870152612c54565b916101808101516101a08501526101a08101516101c085015260018060a01b036101c08201511682850152015115156102008301520390f35b346101795760203660031901126101795760043560005260046020526040600020805460018201549161050c60018060a01b03916104fa83600283015416936003830154166004830154600584015460068501549160ff6007870154169360096104c660088901612bae565b970154986040519b8c9b8c5260208c015260408b015260608a0152608089015260a088015260c087015260e0860190612ca1565b61014080610100860152840190612c54565b906101208301520390f35b3461017957602080600319360112610179576004359081151580610739575b61053f90612d91565b600082815260048252604090206002808201549091336001600160a01b0392831614918215610727575b5050156106e2578260005260048252604060002090600782019081549160ff9081841694600591828710156106b2576105a56001809814612dcf565b600360ff198097161790558581015460005260038752600e604060002001600160a01b60ff60a01b198254161790555460005260088652604060002095604051808883829a54938481520190600052836000209260005b8a868383106106cd575050505061061592500388612b8d565b6000865b610646575b887fc110e6629d1675c1be23b56e91aefe11933fa4c98961cdc796c8db1782565183600080a2005b87518110156106c8576106598189612e0d565b51600052828252600690848260406000200154169160048310156106b257610687921561068d575b50612d48565b86610619565b610697828b612e0d565b5160005284845260406000200186888254161790558a610681565b634e487b7160e01b600052602160045260246000fd5b61061e565b86548552958101958d955090930192016105fc565b60405162461bcd60e51b815260048101839052601c60248201527f4e6f7420617574686f72697a656420666f722074686973206c6f616e000000006044820152606490fd5b90915060033392015416148480610569565b506001548210610536565b346101795760403660031901126101795761075d612aae565b6001600160a01b03166000908152600660205260409020805460243591908210156101795760209161016b91612d1a565b34610179576000366003190112610179576000546040516001600160a01b039091168152602090f35b34610179576020366003190112610179576004356000526005602052604060002060018101546000526004602052604060002060018060a01b036003820154163303610a7757600682015460ff811660048110156106b257610a3e5760058301544211610a095760ff6007830154169060058210156106b25761083d6001809314612dcf565b60ff1916176006830155600260ff196007830154161760078201556001808060a01b0360028401541691019081546000526003602052600e604060002001906001600160601b0360a01b82541617905554600052600e60406000200160ff60a01b198154169055600181015460005260086020526040600020906040518083602082955493848152019060005260206000209260005b8181106109f05750506108e892500383612b8d565b60005b8251811015610979576004356109018285612e0d565b51141580610948575b906109189161091d57612d48565b6108eb565b6109278185612e0d565b5160005260056020526006604060002001600260ff19825416179055612d48565b506109538184612e0d565b51600052600560205260ff600660406000200154169060048210156106b257901561090a565b50600181015460405191816004357f397f87b3946767b09967764d50032941de13a2606bcb39dfed61d7b1ed0192cc600080a3600360018060a01b0360028301541691015490835260208301527f05c7d64bb322864479c9cb001e8e7d17263063d0fb0a4849b75424274301dac3604060043593a3005b84548352600194850194879450602090930192016108d3565b60405162461bcd60e51b815260206004820152600d60248201526c13d999995c88195e1c1a5c9959609a1b6044820152606490fd5b60405162461bcd60e51b81526020600482015260116024820152704f66666572206e6f742070656e64696e6760781b6044820152606490fd5b60405162461bcd60e51b815260206004820152601d60248201527f4f6e6c79206c656e6465722063616e20616363657074206f66666572730000006044820152606490fd5b3461017957604036600319011261017957610ad5612aae565b6001600160a01b03166000908152600760205260409020805460243591908210156101795760209161016b91612d1a565b34610179576101a0366003190112610179576004356001600160401b03811161017957610b37903690600401612cc4565b6044356001600160401b03811161017957610b56903690600401612cc4565b906064356001600160401b03811161017957610b76903690600401612cc4565b906084356001600160401b03811161017957610b96903690600401612cc4565b9160a4356001600160401b03811161017957610bb6903690600401612cc4565b60c4356001600160401b03811161017957610bd5903690600401612cc4565b60e4356001600160401b03811161017957610bf4903690600401612cc4565b90610104356001600160401b03811161017957610c15903690600401612cc4565b9261014435966001600160401b03881161017957610c396000983690600401612cc4565b956020610c7460018060a01b038b54168a6040519c8d8094819363f0cff91760e01b8352336004840152604060248401526044830190612c54565b03925af19889156118915760009961185d575b5060405199610c958b612b71565b898b528860208c015260243560408c015260608b015260808a015260a089015260c088015260e08701526101008601526101208501526101243561014085015261016084015261016435610180840152610184356101a0840152336101c084015260016101e08401528160005260036020526040600020928051845560208101518051906001600160401b0382116111c7578190610d366001880154612aff565b601f811161180a575b50602090601f83116001146117985760009261178d575b50508160011b916000199060031b1c19161760018501555b6040810151600285015560608101518051906001600160401b0382116111c7578190610d9d6003880154612aff565b601f811161173a575b50602090601f83116001146116c8576000926116bd575b50508160011b916000199060031b1c19161760038501555b60808101518051906001600160401b0382116111c7578190610dfa6004880154612aff565b601f811161166a575b50602090601f83116001146115f8576000926115ed575b50508160011b916000199060031b1c19161760048501555b60a08101518051906001600160401b0382116111c7578190610e576005880154612aff565b601f811161159a575b50602090601f83116001146115285760009261151d575b50508160011b916000199060031b1c19161760058501555b60c08101518051906001600160401b0382116111c7578190610eb46006880154612aff565b601f81116114ca575b50602090601f83116001146114585760009261144d575b50508160011b916000199060031b1c19161760068501555b60e08101518051906001600160401b0382116111c7578190610f116007880154612aff565b601f81116113fa575b50602090601f83116001146113885760009261137d575b50508160011b916000199060031b1c19161760078501555b6101008101518051906001600160401b0382116111c7578190610f6f6008880154612aff565b601f811161132a575b50602090601f83116001146112b8576000926112ad575b50508160011b916000199060031b1c19161760088501555b6101208101518051906001600160401b0382116111c7578190610fcd6009880154612aff565b601f811161125a575b50602090601f83116001146111e8576000926111dd575b50508160011b916000199060031b1c19161760098501555b610140810151600a8501556101608101519384516001600160401b0381116111c757611034600b830154612aff565b95601f8711611180575b602096508690601f831160011461111157600e93929160009183611106575b50508160011b916000199060031b1c191617600b8201555b610180830151600c8201556101a0830151600d820155019060018060a01b036101c0820151168254916101e060ff60a01b910151151560a01b16916affffffffffffffffffffff60a81b1617179055817fa9d6e7398f33dc0116a8f8a1356e538fdc374e3092fc8d966e88b541f9b1e125604051858152806110fb339588830190612c54565b0390a3604051908152f35b01519050888061105d565b90601f19831691600b8501600052886000209260005b8181106111695750916001939185600e97969410611150575b505050811b01600b820155611075565b015160001960f88460031b161c19169055888080611140565b92938a600181928786015181550195019301611127565b600b83016000526020600020601f830160051c8101602084106111c0575b601f890160051c820181106111b457505061103e565b6000815560010161119e565b508061119e565b634e487b7160e01b600052604160045260246000fd5b015190508680610fed565b9250600987016000526020600020906000935b601f198416851061123f576001945083601f19811610611226575b505050811b016009850155611005565b015160001960f88460031b161c19169055868080611216565b818101518355602094850194600190930192909101906111fb565b909150600987016000526020600020601f840160051c8101602085106112a6575b90849392915b601f830160051c82018110611297575050610fd6565b60008155859450600101611281565b508061127b565b015190508680610f8f565b9250600887016000526020600020906000935b601f198416851061130f576001945083601f198116106112f6575b505050811b016008850155610fa7565b015160001960f88460031b161c191690558680806112e6565b818101518355602094850194600190930192909101906112cb565b909150600887016000526020600020601f840160051c810160208510611376575b90849392915b601f830160051c82018110611367575050610f78565b60008155859450600101611351565b508061134b565b015190508680610f31565b9250600787016000526020600020906000935b601f19841685106113df576001945083601f198116106113c6575b505050811b016007850155610f49565b015160001960f88460031b161c191690558680806113b6565b8181015183556020948501946001909301929091019061139b565b909150600787016000526020600020601f840160051c810160208510611446575b90849392915b601f830160051c82018110611437575050610f1a565b60008155859450600101611421565b508061141b565b015190508680610ed4565b9250600687016000526020600020906000935b601f19841685106114af576001945083601f19811610611496575b505050811b016006850155610eec565b015160001960f88460031b161c19169055868080611486565b8181015183556020948501946001909301929091019061146b565b909150600687016000526020600020601f840160051c810160208510611516575b90849392915b601f830160051c82018110611507575050610ebd565b600081558594506001016114f1565b50806114eb565b015190508680610e77565b9250600587016000526020600020906000935b601f198416851061157f576001945083601f19811610611566575b505050811b016005850155610e8f565b015160001960f88460031b161c19169055868080611556565b8181015183556020948501946001909301929091019061153b565b909150600587016000526020600020601f840160051c8101602085106115e6575b90849392915b601f830160051c820181106115d7575050610e60565b600081558594506001016115c1565b50806115bb565b015190508680610e1a565b9250600487016000526020600020906000935b601f198416851061164f576001945083601f19811610611636575b505050811b016004850155610e32565b015160001960f88460031b161c19169055868080611626565b8181015183556020948501946001909301929091019061160b565b909150600487016000526020600020601f840160051c8101602085106116b6575b90849392915b601f830160051c820181106116a7575050610e03565b60008155859450600101611691565b508061168b565b015190508680610dbd565b9250600387016000526020600020906000935b601f198416851061171f576001945083601f19811610611706575b505050811b016003850155610dd5565b015160001960f88460031b161c191690558680806116f6565b818101518355602094850194600190930192909101906116db565b909150600387016000526020600020601f840160051c810160208510611786575b90849392915b601f830160051c82018110611777575050610da6565b60008155859450600101611761565b508061175b565b015190508680610d56565b9250600187016000526020600020906000935b601f19841685106117ef576001945083601f198116106117d6575b505050811b016001850155610d6e565b015160001960f88460031b161c191690558680806117c6565b818101518355602094850194600190930192909101906117ab565b909150600187016000526020600020601f840160051c810160208510611856575b90849392915b601f830160051c82018110611847575050610d3f565b60008155859450600101611831565b508061182b565b9098506020813d602011611889575b8161187960209383612b8d565b810103126101795751978a610c87565b3d915061186c565b6040513d6000823e3d90fd5b3461017957602036600319011261017957600435600052600460205260ff6007604060002001541660058110156106b257602090600160405191148152f35b346101795760a0366003190112610179576024356001600160a01b0381168103610179576064356001600160401b0381116101795761191f903690600401612cc4565b90600435600052600360205260018060a01b03600e60406000200154163303611d0157600435600052600360205260ff600e6040600020015460a01c1615611cc4576001600160a01b03811615611c7f5760443515611c42576001549061198582612d48565b6001556040519261199584612b55565b828452600435602085015260018060a01b038216604085015233606085015260443560808501524260a0850152600060c0850152600060e0850152610100840152608435610120840152816000526004602052604060002083518155602084015160018201556002810160018060a01b03604086015116906001600160601b0360a01b9182825416179055600382019060018060a01b03606087015116908254161790556080840151600482015560a0840151600582015560c084015160068201556007810160e085015160058110156106b25760ff801983541691161790556101008401519384516001600160401b0381116111c757611a996008840154612aff565b95601f8711611bf7575b602096508690601f8311600114611b835791806009949261012094600092611b78575b50508160011b916000199060031b1c19161760088501555b01519101553360005260068352611af9826040600020612d57565b60018060a01b03811660005260068352611b17826040600020612d57565b600435600081815260038552604090819020600e01805460ff60a01b191690555160843581526001600160a01b039092169183907f80f60d131a7338644bbece1cc75533405ce4384c91e5a4853b154eee7305d75f908690a4604051908152f35b015190508980611ac6565b9060088501600052876000209160005b601f1985168110611be0575092600994926001926101209583601f19811610611bc7575b505050811b016008850155611ade565b015160001960f88460031b161c19169055898080611bb7565b919289600181928685015181550194019201611b93565b600884016000526020600020601f830160051c81019760208410611c38575b601f0160051c01965b878110611c2c5750611aa3565b60008155600101611c1f565b9097508790611c16565b60405162461bcd60e51b815260206004820152601560248201527424b73b30b634b2103637b0b710323ab930ba34b7b760591b6044820152606490fd5b60405162461bcd60e51b815260206004820152601860248201527f496e76616c696420626f72726f776572206164647265737300000000000000006044820152606490fd5b60405162461bcd60e51b81526020600482015260156024820152744469616d6f6e64206e6f7420617661696c61626c6560581b6044820152606490fd5b60405162461bcd60e51b81526020600482015260116024820152702737ba103234b0b6b7b7321037bbb732b960791b6044820152606490fd5b34610179576020806003193601126101795760043560005260088152604060002090604051908181845491828152019360005281600020916000905b828210611d9d57611d9985611d8d81890382612b8d565b60405191829182612ac4565b0390f35b835486529485019460019384019390910190611d76565b3461017957611dc236612cae565b9033907f0c96cc194fd00c45f6c6c8af627020d36ecadf6ee95d2102b16730505d3cd4f2600080a4005b3461017957602036600319011261017957600435600052600560205260406000208054611d99600183015492611e7960018060a01b036002830154169160038101546004820154600583015491611e4d600760ff6006870154169501612bae565b95604051998a998a5260208a015260408901526060880152608087015260a086015260c0850190612c94565b6101008060e0850152830190612c54565b34610179576000366003190112610179576020600154604051908152f35b34610179576080366003190112610179576004356044356024356064356001600160401b03811161017957611ee1903690600401612cc4565b9280151580612244575b611ef490612d91565b80600052600460205260406000209360ff6007860154169460058610156106b257611f226001809714612dcf565b83156122085760038101546001600160a01b031633141590816121f0575b50156121b25760025493611f5385612d48565b600255620151809081810291818304149015171561219c5742019081421161219c5760405191611f8283612b39565b85835283602084015233604084015284606084015242608084015260a0830152600060c083015260e08201528360005260056020526040600020815181556020820151868201556002810160018060a01b036040840151166001600160601b0360a01b825416179055606082015160038201556080820151600482015560a08201516005820155600681019060c08301519060048210156106b25760e09260079260ff80198354169116179055019101519485516001600160401b0381116111c75761204e8354612aff565b601f8111612155575b506020968790601f83116001146120f3579282939183926000946120e8575b50501b916000199060031b1c19161790555b336000526007845261209e836040600020612d57565b80600052600884526120b4836040600020612d57565b604051918252827f3f7c2cdea5021ba3a44bd1f2eb0670e2c25f5ee8f4f44abfcb0564a28bdfb342853394a4604051908152f35b015192508980612076565b90601f1983169185600052838a6000209360005b8782821061213d57505010612124575b505050811b019055612088565b015160001960f88460031b161c19169055878080612117565b84860151875590950194938c01938692508c01612107565b836000526020600020601f830160051c81019160208410612192575b601f0160051c01905b8181106121875750612057565b60008155830161217a565b9091508190612171565b634e487b7160e01b600052601160045260246000fd5b60405162461bcd60e51b815260206004820152601660248201527521b0b73737ba103134b21037b71037bbb7103637b0b760511b6044820152606490fd5b600201546001600160a01b0316331415905086611f40565b60405162461bcd60e51b8152602060048201526014602482015273125b9d985b1a59081bd999995c88185b5bdd5b9d60621b6044820152606490fd5b506001548110611eeb565b34610179576020366003190112610179576004356000526003602052602060ff600e6040600020015460a01c166040519015158152f35b3461017957602080600319360112610179576001600160a01b036122a8612aae565b1660005260078152604060002090604051908181845491828152019360005281600020916000905b8282106122e757611d9985611d8d81890382612b8d565b8354865294850194600193840193909101906122d0565b34610179576000366003190112610179576020600254604051908152f35b34610179576020366003190112610179576004358015158061246c575b61234290612d91565b60008181526004602052604090206003810154336001600160a01b039182161490811561245c575b501561242657600781019081549160ff831660058110156106b2576123e15760ff19909216600417909155600101546000908152600360205260408120600e01805460ff60a01b1916600160a01b1790557fb71becc91961a6b43bcc5b3b630f3dce02c7fd444cf3738c4f188062b1caf5bc9080a2005b60405162461bcd60e51b815260206004820152601960248201527f43616e6e6f742063616e63656c20616374697665206c6f616e000000000000006044820152606490fd5b60405162461bcd60e51b815260206004820152600e60248201526d139bdd08185d5d1a1bdc9a5e995960921b6044820152606490fd5b600283015416331490508361236a565b506001548110612339565b346101795761248536612cae565b811515806125d0575b61249790612d91565b600082815260046020526040902060028101546001600160a01b039291908316330361258b576007810180549260ff841660058110156106b2576125535760098301540361251c57600160039360ff1916179055426006820155015416907f8b6240997bc3af56f5a9aec0408b8286fb78fb0573f2ba96445be3918511cb93600080a3005b60405162461bcd60e51b815260206004820152600f60248201526e496e76616c696420515220636f646560881b6044820152606490fd5b60405162461bcd60e51b815260206004820152601060248201526f4c6f616e206e6f742070656e64696e6760801b6044820152606490fd5b60405162461bcd60e51b815260206004820152601b60248201527f4e6f74207468652064657369676e6174656420626f72726f77657200000000006044820152606490fd5b50600154821061248e565b346101795760203660031901126101795760006101206040516125fd81612b55565b8281528260208201528260408201528260608201528260808201528260a08201528260c08201528260e082015260606101008201520152600435600052600460205260406000206040519061265182612b55565b805482526001810154602083015260028101546001600160a01b03908116604084015260038201541660608301526004810154608083015260058082015460a0840152600682015460c0840152600782015460ff1691908210156106b25760099160e08401526126c360088201612bae565b6101008401520154610120820152604051809160208252805160208301526020810151604083015260018060a01b03604082015116606083015260018060a01b036060820151166080830152608081015160a083015260a081015160c083015260c081015160e083015261274060e0820151610100840190612ca1565b610100810151610120612760610140928383870152610160860190612c54565b920151908301520390f35b346101795760208060031936011261017957606060e060405161278d81612b39565b600081526000848201526000604082015260008382015260006080820152600060a0820152600060c08201520152600435600052600581526040600020604051906127d782612b39565b80548252600181015483830190815260018060a01b03806002840154166040850190815260038401546060860190815260048501546080870190815260058601549160a0880192835260ff6006880154169460c089019460048710156106b25761284c6007611d999a61288c99895201612bae565b9760e08b019889526040519b8c9b818d5251908c01525160408b0152511660608901525160808801525160a08701525160c08601525160e0850190612c94565b5161010080840152610120830190612c54565b346101795760203660031901126101795760043560005260036020526040600020805490600181016128d090612bae565b90600281015492600382016128e490612bae565b916128f160048201612bae565b6128fd60058301612bae565b61290960068401612bae565b61291560078501612bae565b61292160088601612bae565b9061292e60098701612bae565b92600a87015494600b880161294290612bae565b96600c8901549a600d8a015499600e01549a6040519e8f9e8f928352610200806020850152830161297291612c54565b91604001528d808203906060015261298991612c54565b8c810360808e015261299a91612c54565b8b810360a08d01526129ab91612c54565b8a810360c08c01526129bc91612c54565b89810360e08b01526129cd91612c54565b8881036101008a01526129df91612c54565b8781036101208901526129f191612c54565b90610140870152858103610160870152612a0a91612c54565b926101808501526101a0840152600160a01b6001900381166101c084015260a01c60ff1615156101e08301520390f35b346101795760209081600319360112610179576001600160a01b03612a5d612aae565b166000526006825260406000209182548083528183019360005281600020916000905b828210612a9757611d9985611d8d81890382612b8d565b835486529485019460019384019390910190612a80565b600435906001600160a01b038216820361017957565b6020908160408183019282815285518094520193019160005b828110612aeb575050505090565b835185529381019392810192600101612add565b90600182811c92168015612b2f575b6020831014612b1957565b634e487b7160e01b600052602260045260246000fd5b91607f1691612b0e565b61010081019081106001600160401b038211176111c757604052565b61014081019081106001600160401b038211176111c757604052565b61020081019081106001600160401b038211176111c757604052565b90601f801991011681019081106001600160401b038211176111c757604052565b9060405191826000825492612bc284612aff565b908184526001948581169081600014612c315750600114612bee575b5050612bec92500383612b8d565b565b9093915060005260209081600020936000915b818310612c19575050612bec93508201013880612bde565b85548884018501529485019487945091830191612c01565b915050612bec94506020925060ff191682840152151560051b8201013880612bde565b919082519283825260005b848110612c80575050826000602080949584010152601f8019910116010190565b602081830181015184830182015201612c5f565b9060048210156106b25752565b9060058210156106b25752565b6040906003190112610179576004359060243590565b81601f82011215610179578035906001600160401b0382116111c75760405192612cf8601f8401601f191660200185612b8d565b8284526020838301011161017957816000926020809301838601378301015290565b8054821015612d325760005260206000200190600090565b634e487b7160e01b600052603260045260246000fd5b600019811461219c5760010190565b8054680100000000000000008110156111c757612d7991600182018155612d1a565b819291549060031b91821b91600019901b1916179055565b15612d9857565b60405162461bcd60e51b815260206004820152600f60248201526e125b9d985b1a59081b1bd85b881251608a1b6044820152606490fd5b15612dd657565b60405162461bcd60e51b815260206004820152600f60248201526e4c6f616e206e6f742061637469766560881b6044820152606490fd5b8051821015612d325760209160051b01019056fea26469706673582212202b481c34b7bee13aa2ef9d6e2b48b668188a9c6b1df942dbf811f59db6cfe8be64736f6c63430008140033",
  "immutableReferences": {},
  "source": "// SPDX-License-Identifier: MIT\r\npragma solidity ^0.8.0;\r\n\r\nimport \"./DiamondNFT.sol\";\r\n\r\ncontract DiamondLending {\r\n    \r\n    // Enums for loan status\r\n    enum LoanStatus { PENDING, ACTIVE, SOLD, RETURNED, CANCELLED }\r\n    enum OfferStatus { PENDING, ACCEPTED, REJECTED, EXPIRED }\r\n    \r\n    // Struct for Diamond details\r\n    struct Diamond {\r\n        uint256 tokenId;\r\n        string certificateNumber;\r\n        uint256 weight; // in carats (multiplied by 100 for precision)\r\n        string shape;\r\n        string color;\r\n        string clarity;\r\n        string cut;\r\n        string polish;\r\n        string symmetry;\r\n        string uv;\r\n        uint256 cost; // in wei or smallest unit\r\n        string supplier;\r\n        uint256 buyingDate;\r\n        uint256 expenses;\r\n        address owner;\r\n        bool isAvailable;\r\n    }\r\n    \r\n    // Struct for Loan Agreement\r\n    struct LoanAgreement {\r\n        uint256 loanId;\r\n        uint256 diamondTokenId;\r\n        address borrower;\r\n        address lender;\r\n        uint256 loanDuration; // in days\r\n        uint256 createdAt;\r\n        uint256 approvedAt;\r\n        LoanStatus status;\r\n        string terms; // Additional terms\r\n        bytes32 qrCodeHash; // Hash of QR code data\r\n    }\r\n    \r\n    // Struct for Sale Offer\r\n    struct SaleOffer {\r\n        uint256 offerId;\r\n        uint256 loanId;\r\n        address buyer;\r\n        uint256 offerAmount;\r\n        uint256 createdAt;\r\n        uint256 expiresAt;\r\n        OfferStatus status;\r\n        string message;\r\n    }\r\n    \r\n    // State variables\r\n    DiamondNFT public diamondNFT;\r\n    uint256 public nextLoanId = 1;\r\n    uint256 public nextOfferId = 1;\r\n    \r\n    // Mappings\r\n    mapping(uint256 => Diamond) public diamonds;\r\n    mapping(uint256 => LoanAgreement) public loans;\r\n    mapping(uint256 => SaleOffer) public offers;\r\n    mapping(address => uint256[]) public userLoans;\r\n    mapping(address => uint256[]) public userOffers;\r\n    mapping(uint256 => uint256[]) public loanOffers; // loanId => offerIds[]\r\n    \r\n    // Events\r\n    event DiamondAdded(uint256 indexed tokenId, address indexed owner, string certificateNumber);\r\n    event LoanRequested(uint256 indexed loanId, uint256 indexed diamondTokenId, address indexed borrower, bytes32 qrCodeHash);\r\n    event LoanApproved(uint256 indexed loanId, address indexed lender);\r\n    event LoanCancelled(uint256 indexed loanId);\r\n    event OfferPlaced(uint256 indexed offerId, uint256 indexed loanId, address indexed buyer, uint256 amount);\r\n    event OfferAccepted(uint256 indexed offerId, uint256 indexed loanId);\r\n    event DiamondSold(uint256 indexed loanId, uint256 indexed offerId, address buyer, uint256 amount);\r\n    event DiamondReturned(uint256 indexed loanId);\r\n    event ContractApproved(uint256 indexed contractId, address indexed approver, bytes32 indexed contractHash);\r\n    \r\n    // Modifiers\r\n    modifier onlyDiamondOwner(uint256 tokenId) {\r\n        require(diamonds[tokenId].owner == msg.sender, \"Not diamond owner\");\r\n        _;\r\n    }\r\n    \r\n    modifier onlyLoanParticipant(uint256 loanId) {\r\n        require(\r\n            loans[loanId].borrower == msg.sender || loans[loanId].lender == msg.sender,\r\n            \"Not authorized for this loan\"\r\n        );\r\n        _;\r\n    }\r\n    \r\n    modifier validLoan(uint256 loanId) {\r\n        require(loanId > 0 && loanId < nextLoanId, \"Invalid loan ID\");\r\n        _;\r\n    }\r\n    \r\n    constructor(address _diamondNFTAddress) {\r\n        diamondNFT = DiamondNFT(_diamondNFTAddress);\r\n    }\r\n    \r\n    // Add diamond to inventory\r\n    function addDiamond(\r\n        string memory _certificateNumber,\r\n        uint256 _weight,\r\n        string memory _shape,\r\n        string memory _color,\r\n        string memory _clarity,\r\n        string memory _cut,\r\n        string memory _polish,\r\n        string memory _symmetry,\r\n        string memory _uv,\r\n        uint256 _cost,\r\n        string memory _supplier,\r\n        uint256 _buyingDate,\r\n        uint256 _expenses\r\n    ) external returns (uint256) {\r\n        uint256 tokenId = diamondNFT.mintDiamond(msg.sender, _certificateNumber);\r\n        \r\n        diamonds[tokenId] = Diamond({\r\n            tokenId: tokenId,\r\n            certificateNumber: _certificateNumber,\r\n            weight: _weight,\r\n            shape: _shape,\r\n            color: _color,\r\n            clarity: _clarity,\r\n            cut: _cut,\r\n            polish: _polish,\r\n            symmetry: _symmetry,\r\n            uv: _uv,\r\n            cost: _cost,\r\n            supplier: _supplier,\r\n            buyingDate: _buyingDate,\r\n            expenses: _expenses,\r\n            owner: msg.sender,\r\n            isAvailable: true\r\n        });\r\n        \r\n        emit DiamondAdded(tokenId, msg.sender, _certificateNumber);\r\n        return tokenId;\r\n    }\r\n    \r\n    // Create a loan request (seller initiates)\r\n    function createLoanRequest(\r\n        uint256 _diamondTokenId,\r\n        address _borrower,\r\n        uint256 _loanDuration,\r\n        string memory _terms,\r\n        bytes32 _qrCodeHash\r\n    ) external onlyDiamondOwner(_diamondTokenId) returns (uint256) {\r\n        require(diamonds[_diamondTokenId].isAvailable, \"Diamond not available\");\r\n        require(_borrower != address(0), \"Invalid borrower address\");\r\n        require(_loanDuration > 0, \"Invalid loan duration\");\r\n        \r\n        uint256 loanId = nextLoanId++;\r\n        \r\n        loans[loanId] = LoanAgreement({\r\n            loanId: loanId,\r\n            diamondTokenId: _diamondTokenId,\r\n            borrower: _borrower,\r\n            lender: msg.sender,\r\n            loanDuration: _loanDuration,\r\n            createdAt: block.timestamp,\r\n            approvedAt: 0,\r\n            status: LoanStatus.PENDING,\r\n            terms: _terms,\r\n            qrCodeHash: _qrCodeHash\r\n        });\r\n        \r\n        userLoans[msg.sender].push(loanId);\r\n        userLoans[_borrower].push(loanId);\r\n        \r\n        // Mark diamond as temporarily unavailable\r\n        diamonds[_diamondTokenId].isAvailable = false;\r\n        \r\n        emit LoanRequested(loanId, _diamondTokenId, _borrower, _qrCodeHash);\r\n        return loanId;\r\n    }\r\n    \r\n    // Approve loan request (borrower approves via QR scan)\r\n    function approveLoanRequest(uint256 _loanId, bytes32 _qrCodeHash) \r\n        external \r\n        validLoan(_loanId) \r\n    {\r\n        LoanAgreement storage loan = loans[_loanId];\r\n        require(loan.borrower == msg.sender, \"Not the designated borrower\");\r\n        require(loan.status == LoanStatus.PENDING, \"Loan not pending\");\r\n        require(loan.qrCodeHash == _qrCodeHash, \"Invalid QR code\");\r\n        \r\n        loan.status = LoanStatus.ACTIVE;\r\n        loan.approvedAt = block.timestamp;\r\n        \r\n        emit LoanApproved(_loanId, loan.lender);\r\n    }\r\n\r\n    function approveContract(uint256 contractId, bytes32 contractHash) public {\r\n        // Add your approval logic here\r\n        // This will trigger MetaMask when called\r\n        emit ContractApproved(contractId, msg.sender, contractHash);\r\n    }\r\n    \r\n    // Cancel loan request\r\n    function cancelLoanRequest(uint256 _loanId) \r\n        external \r\n        validLoan(_loanId) \r\n    {\r\n        LoanAgreement storage loan = loans[_loanId];\r\n        require(\r\n            loan.lender == msg.sender || loan.borrower == msg.sender,\r\n            \"Not authorized\"\r\n        );\r\n        require(loan.status == LoanStatus.PENDING, \"Cannot cancel active loan\");\r\n        \r\n        loan.status = LoanStatus.CANCELLED;\r\n        diamonds[loan.diamondTokenId].isAvailable = true;\r\n        \r\n        emit LoanCancelled(_loanId);\r\n    }\r\n    \r\n    // Place a bid/offer on borrowed diamond\r\n    function placeOffer(\r\n        uint256 _loanId,\r\n        uint256 _offerAmount,\r\n        uint256 _expirationDays,\r\n        string memory _message\r\n    ) external validLoan(_loanId) returns (uint256) {\r\n        LoanAgreement storage loan = loans[_loanId];\r\n        require(loan.status == LoanStatus.ACTIVE, \"Loan not active\");\r\n        require(_offerAmount > 0, \"Invalid offer amount\");\r\n        require(msg.sender != loan.lender && msg.sender != loan.borrower, \"Cannot bid on own loan\");\r\n        \r\n        uint256 offerId = nextOfferId++;\r\n        \r\n        offers[offerId] = SaleOffer({\r\n            offerId: offerId,\r\n            loanId: _loanId,\r\n            buyer: msg.sender,\r\n            offerAmount: _offerAmount,\r\n            createdAt: block.timestamp,\r\n            expiresAt: block.timestamp + (_expirationDays * 1 days),\r\n            status: OfferStatus.PENDING,\r\n            message: _message\r\n        });\r\n        \r\n        userOffers[msg.sender].push(offerId);\r\n        loanOffers[_loanId].push(offerId);\r\n        \r\n        emit OfferPlaced(offerId, _loanId, msg.sender, _offerAmount);\r\n        return offerId;\r\n    }\r\n    \r\n    // Accept an offer (lender accepts)\r\n    function acceptOffer(uint256 _offerId) external {\r\n        SaleOffer storage offer = offers[_offerId];\r\n        LoanAgreement storage loan = loans[offer.loanId];\r\n        \r\n        require(loan.lender == msg.sender, \"Only lender can accept offers\");\r\n        require(offer.status == OfferStatus.PENDING, \"Offer not pending\");\r\n        require(block.timestamp <= offer.expiresAt, \"Offer expired\");\r\n        require(loan.status == LoanStatus.ACTIVE, \"Loan not active\");\r\n        \r\n        offer.status = OfferStatus.ACCEPTED;\r\n        loan.status = LoanStatus.SOLD;\r\n        \r\n        // Transfer diamond ownership to buyer\r\n        diamonds[loan.diamondTokenId].owner = offer.buyer;\r\n        diamonds[loan.diamondTokenId].isAvailable = false; // Sold diamond\r\n        \r\n        // Reject all other pending offers for this loan\r\n        _rejectOtherOffers(offer.loanId, _offerId);\r\n        \r\n        emit OfferAccepted(_offerId, offer.loanId);\r\n        emit DiamondSold(offer.loanId, _offerId, offer.buyer, offer.offerAmount);\r\n    }\r\n    \r\n    // Return diamond (both parties confirm)\r\n    function returnDiamond(uint256 _loanId) \r\n        external \r\n        validLoan(_loanId) \r\n        onlyLoanParticipant(_loanId) \r\n    {\r\n        LoanAgreement storage loan = loans[_loanId];\r\n        require(loan.status == LoanStatus.ACTIVE, \"Loan not active\");\r\n        \r\n        loan.status = LoanStatus.RETURNED;\r\n        diamonds[loan.diamondTokenId].isAvailable = true;\r\n        \r\n        // Reject all pending offers for this loan\r\n        _rejectAllOffers(loan.loanId);\r\n        \r\n        emit DiamondReturned(_loanId);\r\n    }\r\n    \r\n    // Internal function to reject other offers\r\n    function _rejectOtherOffers(uint256 _loanId, uint256 _acceptedOfferId) internal {\r\n        uint256[] memory offerIds = loanOffers[_loanId];\r\n        for (uint256 i = 0; i < offerIds.length; i++) {\r\n            if (offerIds[i] != _acceptedOfferId && offers[offerIds[i]].status == OfferStatus.PENDING) {\r\n                offers[offerIds[i]].status = OfferStatus.REJECTED;\r\n            }\r\n        }\r\n    }\r\n    \r\n    // Internal function to reject all offers\r\n    function _rejectAllOffers(uint256 _loanId) internal {\r\n        uint256[] memory offerIds = loanOffers[_loanId];\r\n        for (uint256 i = 0; i < offerIds.length; i++) {\r\n            if (offers[offerIds[i]].status == OfferStatus.PENDING) {\r\n                offers[offerIds[i]].status = OfferStatus.REJECTED;\r\n            }\r\n        }\r\n    }\r\n    \r\n    // View functions\r\n    function getDiamond(uint256 _tokenId) external view returns (Diamond memory) {\r\n        return diamonds[_tokenId];\r\n    }\r\n    \r\n    function getLoan(uint256 _loanId) external view returns (LoanAgreement memory) {\r\n        return loans[_loanId];\r\n    }\r\n    \r\n    function getOffer(uint256 _offerId) external view returns (SaleOffer memory) {\r\n        return offers[_offerId];\r\n    }\r\n    \r\n    function getUserLoans(address _user) external view returns (uint256[] memory) {\r\n        return userLoans[_user];\r\n    }\r\n    \r\n    function getUserOffers(address _user) external view returns (uint256[] memory) {\r\n        return userOffers[_user];\r\n    }\r\n    \r\n    function getLoanOffers(uint256 _loanId) external view returns (uint256[] memory) {\r\n        return loanOffers[_loanId];\r\n    }\r\n    \r\n    function isLoanActive(uint256 _loanId) external view returns (bool) {\r\n        return loans[_loanId].status == LoanStatus.ACTIVE;\r\n    }\r\n    \r\n    function isDiamondAvailable(uint256 _tokenId) external view returns (bool) {\r\n        return diamonds[_tokenId].isAvailable;\r\n    }\r\n\r\n    // struct LoanRequest {\r\n    // uint256 diamondTokenId;\r\n    // address borrower;\r\n    // uint256 loanDuration;\r\n    // string terms;\r\n    // bytes32 qrCodeHash;\r\n    // }\r\n\r\n    // LoanRequest[] public loanRequests;\r\n\r\n    // function getLoanRequest(uint256 index) public view returns (LoanRequest memory) {\r\n    //     return loanRequests[index];\r\n    // }\r\n}",
  "sourcePath": "C:\\Users\\ronig\\Diamond-Zone\\blockchain\\contracts\\DiamondLending.sol",
  "compiler": {
    "name": "solc",
    "version": "0.8.20+commit.a1b79de6.Emscripten.clang"
  },
  "schemaVersion": "3.4.16",
  "updatedAt": "2025-08-21T13:24:28.405Z",
  "networkType": "ethereum",
  "devdoc": {
    "kind": "dev",
    "methods": {},
    "version": 1
  },
  "userdoc": {
    "kind": "user",
    "methods": {},
    "version": 1
  }
}