{
  "contractName": "DiamondLending",
  "abi": [
    {
      "inputs": [
        {
          "internalType": "address",
          "name": "_diamondNFTAddress",
          "type": "address"
        }
      ],
      "stateMutability": "nonpayable",
      "type": "constructor"
    },
    {
      "anonymous": false,
      "inputs": [
        {
          "indexed": true,
          "internalType": "uint256",
          "name": "tokenId",
          "type": "uint256"
        },
        {
          "indexed": true,
          "internalType": "address",
          "name": "owner",
          "type": "address"
        },
        {
          "indexed": false,
          "internalType": "string",
          "name": "certificateNumber",
          "type": "string"
        }
      ],
      "name": "DiamondAdded",
      "type": "event"
    },
    {
      "anonymous": false,
      "inputs": [
        {
          "indexed": true,
          "internalType": "uint256",
          "name": "loanId",
          "type": "uint256"
        }
      ],
      "name": "DiamondReturned",
      "type": "event"
    },
    {
      "anonymous": false,
      "inputs": [
        {
          "indexed": true,
          "internalType": "uint256",
          "name": "loanId",
          "type": "uint256"
        },
        {
          "indexed": true,
          "internalType": "uint256",
          "name": "offerId",
          "type": "uint256"
        },
        {
          "indexed": false,
          "internalType": "address",
          "name": "buyer",
          "type": "address"
        },
        {
          "indexed": false,
          "internalType": "uint256",
          "name": "amount",
          "type": "uint256"
        }
      ],
      "name": "DiamondSold",
      "type": "event"
    },
    {
      "anonymous": false,
      "inputs": [
        {
          "indexed": true,
          "internalType": "uint256",
          "name": "loanId",
          "type": "uint256"
        },
        {
          "indexed": true,
          "internalType": "address",
          "name": "lender",
          "type": "address"
        }
      ],
      "name": "LoanApproved",
      "type": "event"
    },
    {
      "anonymous": false,
      "inputs": [
        {
          "indexed": true,
          "internalType": "uint256",
          "name": "loanId",
          "type": "uint256"
        }
      ],
      "name": "LoanCancelled",
      "type": "event"
    },
    {
      "anonymous": false,
      "inputs": [
        {
          "indexed": true,
          "internalType": "uint256",
          "name": "loanId",
          "type": "uint256"
        },
        {
          "indexed": true,
          "internalType": "uint256",
          "name": "diamondTokenId",
          "type": "uint256"
        },
        {
          "indexed": true,
          "internalType": "address",
          "name": "borrower",
          "type": "address"
        },
        {
          "indexed": false,
          "internalType": "bytes32",
          "name": "qrCodeHash",
          "type": "bytes32"
        }
      ],
      "name": "LoanRequested",
      "type": "event"
    },
    {
      "anonymous": false,
      "inputs": [
        {
          "indexed": true,
          "internalType": "uint256",
          "name": "offerId",
          "type": "uint256"
        },
        {
          "indexed": true,
          "internalType": "uint256",
          "name": "loanId",
          "type": "uint256"
        }
      ],
      "name": "OfferAccepted",
      "type": "event"
    },
    {
      "anonymous": false,
      "inputs": [
        {
          "indexed": true,
          "internalType": "uint256",
          "name": "offerId",
          "type": "uint256"
        },
        {
          "indexed": true,
          "internalType": "uint256",
          "name": "loanId",
          "type": "uint256"
        },
        {
          "indexed": true,
          "internalType": "address",
          "name": "buyer",
          "type": "address"
        },
        {
          "indexed": false,
          "internalType": "uint256",
          "name": "amount",
          "type": "uint256"
        }
      ],
      "name": "OfferPlaced",
      "type": "event"
    },
    {
      "inputs": [],
      "name": "diamondNFT",
      "outputs": [
        {
          "internalType": "contract DiamondNFT",
          "name": "",
          "type": "address"
        }
      ],
      "stateMutability": "view",
      "type": "function"
    },
    {
      "inputs": [
        {
          "internalType": "uint256",
          "name": "",
          "type": "uint256"
        }
      ],
      "name": "diamonds",
      "outputs": [
        {
          "internalType": "uint256",
          "name": "tokenId",
          "type": "uint256"
        },
        {
          "internalType": "string",
          "name": "certificateNumber",
          "type": "string"
        },
        {
          "internalType": "uint256",
          "name": "weight",
          "type": "uint256"
        },
        {
          "internalType": "string",
          "name": "shape",
          "type": "string"
        },
        {
          "internalType": "string",
          "name": "color",
          "type": "string"
        },
        {
          "internalType": "string",
          "name": "clarity",
          "type": "string"
        },
        {
          "internalType": "string",
          "name": "cut",
          "type": "string"
        },
        {
          "internalType": "string",
          "name": "polish",
          "type": "string"
        },
        {
          "internalType": "string",
          "name": "symmetry",
          "type": "string"
        },
        {
          "internalType": "string",
          "name": "uv",
          "type": "string"
        },
        {
          "internalType": "uint256",
          "name": "cost",
          "type": "uint256"
        },
        {
          "internalType": "string",
          "name": "supplier",
          "type": "string"
        },
        {
          "internalType": "uint256",
          "name": "buyingDate",
          "type": "uint256"
        },
        {
          "internalType": "uint256",
          "name": "expenses",
          "type": "uint256"
        },
        {
          "internalType": "address",
          "name": "owner",
          "type": "address"
        },
        {
          "internalType": "bool",
          "name": "isAvailable",
          "type": "bool"
        }
      ],
      "stateMutability": "view",
      "type": "function"
    },
    {
      "inputs": [
        {
          "internalType": "uint256",
          "name": "",
          "type": "uint256"
        },
        {
          "internalType": "uint256",
          "name": "",
          "type": "uint256"
        }
      ],
      "name": "loanOffers",
      "outputs": [
        {
          "internalType": "uint256",
          "name": "",
          "type": "uint256"
        }
      ],
      "stateMutability": "view",
      "type": "function"
    },
    {
      "inputs": [
        {
          "internalType": "uint256",
          "name": "",
          "type": "uint256"
        }
      ],
      "name": "loans",
      "outputs": [
        {
          "internalType": "uint256",
          "name": "loanId",
          "type": "uint256"
        },
        {
          "internalType": "uint256",
          "name": "diamondTokenId",
          "type": "uint256"
        },
        {
          "internalType": "address",
          "name": "borrower",
          "type": "address"
        },
        {
          "internalType": "address",
          "name": "lender",
          "type": "address"
        },
        {
          "internalType": "uint256",
          "name": "loanDuration",
          "type": "uint256"
        },
        {
          "internalType": "uint256",
          "name": "createdAt",
          "type": "uint256"
        },
        {
          "internalType": "uint256",
          "name": "approvedAt",
          "type": "uint256"
        },
        {
          "internalType": "enum DiamondLending.LoanStatus",
          "name": "status",
          "type": "uint8"
        },
        {
          "internalType": "string",
          "name": "terms",
          "type": "string"
        },
        {
          "internalType": "bytes32",
          "name": "qrCodeHash",
          "type": "bytes32"
        }
      ],
      "stateMutability": "view",
      "type": "function"
    },
    {
      "inputs": [],
      "name": "nextLoanId",
      "outputs": [
        {
          "internalType": "uint256",
          "name": "",
          "type": "uint256"
        }
      ],
      "stateMutability": "view",
      "type": "function"
    },
    {
      "inputs": [],
      "name": "nextOfferId",
      "outputs": [
        {
          "internalType": "uint256",
          "name": "",
          "type": "uint256"
        }
      ],
      "stateMutability": "view",
      "type": "function"
    },
    {
      "inputs": [
        {
          "internalType": "uint256",
          "name": "",
          "type": "uint256"
        }
      ],
      "name": "offers",
      "outputs": [
        {
          "internalType": "uint256",
          "name": "offerId",
          "type": "uint256"
        },
        {
          "internalType": "uint256",
          "name": "loanId",
          "type": "uint256"
        },
        {
          "internalType": "address",
          "name": "buyer",
          "type": "address"
        },
        {
          "internalType": "uint256",
          "name": "offerAmount",
          "type": "uint256"
        },
        {
          "internalType": "uint256",
          "name": "createdAt",
          "type": "uint256"
        },
        {
          "internalType": "uint256",
          "name": "expiresAt",
          "type": "uint256"
        },
        {
          "internalType": "enum DiamondLending.OfferStatus",
          "name": "status",
          "type": "uint8"
        },
        {
          "internalType": "string",
          "name": "message",
          "type": "string"
        }
      ],
      "stateMutability": "view",
      "type": "function"
    },
    {
      "inputs": [
        {
          "internalType": "address",
          "name": "",
          "type": "address"
        },
        {
          "internalType": "uint256",
          "name": "",
          "type": "uint256"
        }
      ],
      "name": "userLoans",
      "outputs": [
        {
          "internalType": "uint256",
          "name": "",
          "type": "uint256"
        }
      ],
      "stateMutability": "view",
      "type": "function"
    },
    {
      "inputs": [
        {
          "internalType": "address",
          "name": "",
          "type": "address"
        },
        {
          "internalType": "uint256",
          "name": "",
          "type": "uint256"
        }
      ],
      "name": "userOffers",
      "outputs": [
        {
          "internalType": "uint256",
          "name": "",
          "type": "uint256"
        }
      ],
      "stateMutability": "view",
      "type": "function"
    },
    {
      "inputs": [
        {
          "internalType": "string",
          "name": "_certificateNumber",
          "type": "string"
        },
        {
          "internalType": "uint256",
          "name": "_weight",
          "type": "uint256"
        },
        {
          "internalType": "string",
          "name": "_shape",
          "type": "string"
        },
        {
          "internalType": "string",
          "name": "_color",
          "type": "string"
        },
        {
          "internalType": "string",
          "name": "_clarity",
          "type": "string"
        },
        {
          "internalType": "string",
          "name": "_cut",
          "type": "string"
        },
        {
          "internalType": "string",
          "name": "_polish",
          "type": "string"
        },
        {
          "internalType": "string",
          "name": "_symmetry",
          "type": "string"
        },
        {
          "internalType": "string",
          "name": "_uv",
          "type": "string"
        },
        {
          "internalType": "uint256",
          "name": "_cost",
          "type": "uint256"
        },
        {
          "internalType": "string",
          "name": "_supplier",
          "type": "string"
        },
        {
          "internalType": "uint256",
          "name": "_buyingDate",
          "type": "uint256"
        },
        {
          "internalType": "uint256",
          "name": "_expenses",
          "type": "uint256"
        }
      ],
      "name": "addDiamond",
      "outputs": [
        {
          "internalType": "uint256",
          "name": "",
          "type": "uint256"
        }
      ],
      "stateMutability": "nonpayable",
      "type": "function"
    },
    {
      "inputs": [
        {
          "internalType": "uint256",
          "name": "_diamondTokenId",
          "type": "uint256"
        },
        {
          "internalType": "address",
          "name": "_borrower",
          "type": "address"
        },
        {
          "internalType": "uint256",
          "name": "_loanDuration",
          "type": "uint256"
        },
        {
          "internalType": "string",
          "name": "_terms",
          "type": "string"
        },
        {
          "internalType": "bytes32",
          "name": "_qrCodeHash",
          "type": "bytes32"
        }
      ],
      "name": "createLoanRequest",
      "outputs": [
        {
          "internalType": "uint256",
          "name": "",
          "type": "uint256"
        }
      ],
      "stateMutability": "nonpayable",
      "type": "function"
    },
    {
      "inputs": [
        {
          "internalType": "uint256",
          "name": "_loanId",
          "type": "uint256"
        },
        {
          "internalType": "bytes32",
          "name": "_qrCodeHash",
          "type": "bytes32"
        }
      ],
      "name": "approveLoanRequest",
      "outputs": [],
      "stateMutability": "nonpayable",
      "type": "function"
    },
    {
      "inputs": [
        {
          "internalType": "uint256",
          "name": "_loanId",
          "type": "uint256"
        }
      ],
      "name": "cancelLoanRequest",
      "outputs": [],
      "stateMutability": "nonpayable",
      "type": "function"
    },
    {
      "inputs": [
        {
          "internalType": "uint256",
          "name": "_loanId",
          "type": "uint256"
        },
        {
          "internalType": "uint256",
          "name": "_offerAmount",
          "type": "uint256"
        },
        {
          "internalType": "uint256",
          "name": "_expirationDays",
          "type": "uint256"
        },
        {
          "internalType": "string",
          "name": "_message",
          "type": "string"
        }
      ],
      "name": "placeOffer",
      "outputs": [
        {
          "internalType": "uint256",
          "name": "",
          "type": "uint256"
        }
      ],
      "stateMutability": "nonpayable",
      "type": "function"
    },
    {
      "inputs": [
        {
          "internalType": "uint256",
          "name": "_offerId",
          "type": "uint256"
        }
      ],
      "name": "acceptOffer",
      "outputs": [],
      "stateMutability": "nonpayable",
      "type": "function"
    },
    {
      "inputs": [
        {
          "internalType": "uint256",
          "name": "_loanId",
          "type": "uint256"
        }
      ],
      "name": "returnDiamond",
      "outputs": [],
      "stateMutability": "nonpayable",
      "type": "function"
    },
    {
      "inputs": [
        {
          "internalType": "uint256",
          "name": "_tokenId",
          "type": "uint256"
        }
      ],
      "name": "getDiamond",
      "outputs": [
        {
          "components": [
            {
              "internalType": "uint256",
              "name": "tokenId",
              "type": "uint256"
            },
            {
              "internalType": "string",
              "name": "certificateNumber",
              "type": "string"
            },
            {
              "internalType": "uint256",
              "name": "weight",
              "type": "uint256"
            },
            {
              "internalType": "string",
              "name": "shape",
              "type": "string"
            },
            {
              "internalType": "string",
              "name": "color",
              "type": "string"
            },
            {
              "internalType": "string",
              "name": "clarity",
              "type": "string"
            },
            {
              "internalType": "string",
              "name": "cut",
              "type": "string"
            },
            {
              "internalType": "string",
              "name": "polish",
              "type": "string"
            },
            {
              "internalType": "string",
              "name": "symmetry",
              "type": "string"
            },
            {
              "internalType": "string",
              "name": "uv",
              "type": "string"
            },
            {
              "internalType": "uint256",
              "name": "cost",
              "type": "uint256"
            },
            {
              "internalType": "string",
              "name": "supplier",
              "type": "string"
            },
            {
              "internalType": "uint256",
              "name": "buyingDate",
              "type": "uint256"
            },
            {
              "internalType": "uint256",
              "name": "expenses",
              "type": "uint256"
            },
            {
              "internalType": "address",
              "name": "owner",
              "type": "address"
            },
            {
              "internalType": "bool",
              "name": "isAvailable",
              "type": "bool"
            }
          ],
          "internalType": "struct DiamondLending.Diamond",
          "name": "",
          "type": "tuple"
        }
      ],
      "stateMutability": "view",
      "type": "function"
    },
    {
      "inputs": [
        {
          "internalType": "uint256",
          "name": "_loanId",
          "type": "uint256"
        }
      ],
      "name": "getLoan",
      "outputs": [
        {
          "components": [
            {
              "internalType": "uint256",
              "name": "loanId",
              "type": "uint256"
            },
            {
              "internalType": "uint256",
              "name": "diamondTokenId",
              "type": "uint256"
            },
            {
              "internalType": "address",
              "name": "borrower",
              "type": "address"
            },
            {
              "internalType": "address",
              "name": "lender",
              "type": "address"
            },
            {
              "internalType": "uint256",
              "name": "loanDuration",
              "type": "uint256"
            },
            {
              "internalType": "uint256",
              "name": "createdAt",
              "type": "uint256"
            },
            {
              "internalType": "uint256",
              "name": "approvedAt",
              "type": "uint256"
            },
            {
              "internalType": "enum DiamondLending.LoanStatus",
              "name": "status",
              "type": "uint8"
            },
            {
              "internalType": "string",
              "name": "terms",
              "type": "string"
            },
            {
              "internalType": "bytes32",
              "name": "qrCodeHash",
              "type": "bytes32"
            }
          ],
          "internalType": "struct DiamondLending.LoanAgreement",
          "name": "",
          "type": "tuple"
        }
      ],
      "stateMutability": "view",
      "type": "function"
    },
    {
      "inputs": [
        {
          "internalType": "uint256",
          "name": "_offerId",
          "type": "uint256"
        }
      ],
      "name": "getOffer",
      "outputs": [
        {
          "components": [
            {
              "internalType": "uint256",
              "name": "offerId",
              "type": "uint256"
            },
            {
              "internalType": "uint256",
              "name": "loanId",
              "type": "uint256"
            },
            {
              "internalType": "address",
              "name": "buyer",
              "type": "address"
            },
            {
              "internalType": "uint256",
              "name": "offerAmount",
              "type": "uint256"
            },
            {
              "internalType": "uint256",
              "name": "createdAt",
              "type": "uint256"
            },
            {
              "internalType": "uint256",
              "name": "expiresAt",
              "type": "uint256"
            },
            {
              "internalType": "enum DiamondLending.OfferStatus",
              "name": "status",
              "type": "uint8"
            },
            {
              "internalType": "string",
              "name": "message",
              "type": "string"
            }
          ],
          "internalType": "struct DiamondLending.SaleOffer",
          "name": "",
          "type": "tuple"
        }
      ],
      "stateMutability": "view",
      "type": "function"
    },
    {
      "inputs": [
        {
          "internalType": "address",
          "name": "_user",
          "type": "address"
        }
      ],
      "name": "getUserLoans",
      "outputs": [
        {
          "internalType": "uint256[]",
          "name": "",
          "type": "uint256[]"
        }
      ],
      "stateMutability": "view",
      "type": "function"
    },
    {
      "inputs": [
        {
          "internalType": "address",
          "name": "_user",
          "type": "address"
        }
      ],
      "name": "getUserOffers",
      "outputs": [
        {
          "internalType": "uint256[]",
          "name": "",
          "type": "uint256[]"
        }
      ],
      "stateMutability": "view",
      "type": "function"
    },
    {
      "inputs": [
        {
          "internalType": "uint256",
          "name": "_loanId",
          "type": "uint256"
        }
      ],
      "name": "getLoanOffers",
      "outputs": [
        {
          "internalType": "uint256[]",
          "name": "",
          "type": "uint256[]"
        }
      ],
      "stateMutability": "view",
      "type": "function"
    },
    {
      "inputs": [
        {
          "internalType": "uint256",
          "name": "_loanId",
          "type": "uint256"
        }
      ],
      "name": "isLoanActive",
      "outputs": [
        {
          "internalType": "bool",
          "name": "",
          "type": "bool"
        }
      ],
      "stateMutability": "view",
      "type": "function"
    },
    {
      "inputs": [
        {
          "internalType": "uint256",
          "name": "_tokenId",
          "type": "uint256"
        }
      ],
      "name": "isDiamondAvailable",
      "outputs": [
        {
          "internalType": "bool",
          "name": "",
          "type": "bool"
        }
      ],
      "stateMutability": "view",
      "type": "function"
    }
  ],
  "bytecode": "0x60803461007e57601f62002ea138819003918201601f19168301916001600160401b038311848410176100835780849260209460405283398101031261007e57516001600160a01b0381169081900361007e576001808055600255600080546001600160a01b031916919091179055604051612e0790816200009a8239f35b600080fd5b634e487b7160e01b600052604160045260246000fdfe608080604052600436101561001357600080fd5b60003560e01c90816302bf321f14612a00575080633951e09b146128655780634579268a14612731578063504006ca146125a157806353cd6e82146124345780635a680367146122d95780635f5d0655146122bb578063661d2c2c14612243578063666a81cf1461220c57806385b3d89614611e6557806387c5145914611e475780638a72ea6a14611da95780639aed64e014611d2f578063a9a2096e146118d1578063b03590be14611892578063b441722f14610afb578063bd5fec6514610ab1578063c815729d146107ac578063cfdf660114610783578063d8bad5bd14610739578063debf65e51461050c578063e1ec3c681461044f578063e3ed14db146101735763fa2a49d41461012757600080fd5b3461016e57604036600319011261016e5760243560043560005260086020526040600020805482101561016e5760209161016091612cca565b90546040519160031b1c8152f35b600080fd5b3461016e57602036600319011261016e5760006101e060405161019581612b37565b8281526060602082015282604082015260608082015260606080820152606060a0820152606060c0820152606060e08201526060610100820152606061012082015282610140820152606061016082015282610180820152826101a0820152826101c082015201526004356000526003602052604060208160002060ff600e84519261022084612b37565b8054845261023060018201612b74565b8585015260028101548685015261024960038201612b74565b606085015261025a60048201612b74565b608085015261026b60058201612b74565b60a085015261027c60068201612b74565b60c085015261028d60078201612b74565b60e085015261029e60088201612b74565b6101008501526102b060098201612b74565b610120850152600a8101546101408501526102cd600b8201612b74565b610160850152600c810154610180850152600d8101546101a0850152015460018060a01b0381166101c084015260a01c1615156101e08201526101e06104166103f26103da6103c26103ab61039561037f6103696103488a6102008e519e8f9e8f9381855280518286015201519201526102208d0190612c1a565b60408b015160608d015260608b01518c6080601f1982850301910152612c1a565b60808a01518b8203601f190160a08d0152612c1a565b60a08901518a8203601f190160c08c0152612c1a565b60c0880151898203601f190160e08b0152612c1a565b60e0870151888203601f19016101008a0152612c1a565b610100860151878203601f1901610120890152612c1a565b610120850151868203601f1901610140880152612c1a565b610140840151610160860152610160840151601f1986830301610180870152612c1a565b916101808101516101a08501526101a08101516101c085015260018060a01b036101c08201511682850152015115156102008301520390f35b3461016e57602036600319011261016e5760043560005260046020526040600020805460018201549161050160018060a01b03916104ef83600283015416936003830154166004830154600584015460068501549160ff6007870154169360096104bb60088901612b74565b970154986040519b8c9b8c5260208c015260408b015260608a0152608089015260a088015260c087015260e0860190612c67565b61014080610100860152840190612c1a565b906101208301520390f35b3461016e5760208060031936011261016e57600435908115158061072e575b61053490612d41565b600082815260048252604090206002808201549091336001600160a01b039283161491821561071c575b5050156106d7578260005260048252604060002090600782019081549160ff9081841694600591828710156106a75761059a6001809814612d7f565b600360ff198097161790558581015460005260038752600e604060002001600160a01b60ff60a01b198254161790555460005260088652604060002095604051808883829a54938481520190600052836000209260005b8a868383106106c2575050505061060a92500388612b53565b6000865b61063b575b887fc110e6629d1675c1be23b56e91aefe11933fa4c98961cdc796c8db1782565183600080a2005b87518110156106bd5761064e8189612dbd565b51600052828252600690848260406000200154169160048310156106a75761067c9215610682575b50612cf8565b8661060e565b61068c828b612dbd565b5160005284845260406000200186888254161790558a610676565b634e487b7160e01b600052602160045260246000fd5b610613565b86548552958101958d955090930192016105f1565b60405162461bcd60e51b815260048101839052601c60248201527f4e6f7420617574686f72697a656420666f722074686973206c6f616e000000006044820152606490fd5b9091506003339201541614848061055e565b50600154821061052b565b3461016e57604036600319011261016e57610752612a74565b6001600160a01b031660009081526006602052604090208054602435919082101561016e5760209161016091612cca565b3461016e57600036600319011261016e576000546040516001600160a01b039091168152602090f35b3461016e57602036600319011261016e576004356000526005602052604060002060018101546000526004602052604060002060018060a01b036003820154163303610a6c57600682015460ff811660048110156106a757610a3357600583015442116109fe5760ff6007830154169060058210156106a7576108326001809314612d7f565b60ff1916176006830155600260ff196007830154161760078201556001808060a01b0360028401541691019081546000526003602052600e604060002001906001600160601b0360a01b82541617905554600052600e60406000200160ff60a01b198154169055600181015460005260086020526040600020906040518083602082955493848152019060005260206000209260005b8181106109e55750506108dd92500383612b53565b60005b825181101561096e576004356108f68285612dbd565b5114158061093d575b9061090d9161091257612cf8565b6108e0565b61091c8185612dbd565b5160005260056020526006604060002001600260ff19825416179055612cf8565b506109488184612dbd565b51600052600560205260ff600660406000200154169060048210156106a75790156108ff565b50600181015460405191816004357f397f87b3946767b09967764d50032941de13a2606bcb39dfed61d7b1ed0192cc600080a3600360018060a01b0360028301541691015490835260208301527f05c7d64bb322864479c9cb001e8e7d17263063d0fb0a4849b75424274301dac3604060043593a3005b84548352600194850194879450602090930192016108c8565b60405162461bcd60e51b815260206004820152600d60248201526c13d999995c88195e1c1a5c9959609a1b6044820152606490fd5b60405162461bcd60e51b81526020600482015260116024820152704f66666572206e6f742070656e64696e6760781b6044820152606490fd5b60405162461bcd60e51b815260206004820152601d60248201527f4f6e6c79206c656e6465722063616e20616363657074206f66666572730000006044820152606490fd5b3461016e57604036600319011261016e57610aca612a74565b6001600160a01b031660009081526007602052604090208054602435919082101561016e5760209161016091612cca565b3461016e576101a036600319011261016e576004356001600160401b03811161016e57610b2c903690600401612c74565b6044356001600160401b03811161016e57610b4b903690600401612c74565b906064356001600160401b03811161016e57610b6b903690600401612c74565b906084356001600160401b03811161016e57610b8b903690600401612c74565b9160a4356001600160401b03811161016e57610bab903690600401612c74565b60c4356001600160401b03811161016e57610bca903690600401612c74565b60e4356001600160401b03811161016e57610be9903690600401612c74565b90610104356001600160401b03811161016e57610c0a903690600401612c74565b9261014435966001600160401b03881161016e57610c2e6000983690600401612c74565b956020610c6960018060a01b038b54168a6040519c8d8094819363f0cff91760e01b8352336004840152604060248401526044830190612c1a565b03925af198891561188657600099611852575b5060405199610c8a8b612b37565b898b528860208c015260243560408c015260608b015260808a015260a089015260c088015260e08701526101008601526101208501526101243561014085015261016084015261016435610180840152610184356101a0840152336101c084015260016101e08401528160005260036020526040600020928051845560208101518051906001600160401b0382116111bc578190610d2b6001880154612ac5565b601f81116117ff575b50602090601f831160011461178d57600092611782575b50508160011b916000199060031b1c19161760018501555b6040810151600285015560608101518051906001600160401b0382116111bc578190610d926003880154612ac5565b601f811161172f575b50602090601f83116001146116bd576000926116b2575b50508160011b916000199060031b1c19161760038501555b60808101518051906001600160401b0382116111bc578190610def6004880154612ac5565b601f811161165f575b50602090601f83116001146115ed576000926115e2575b50508160011b916000199060031b1c19161760048501555b60a08101518051906001600160401b0382116111bc578190610e4c6005880154612ac5565b601f811161158f575b50602090601f831160011461151d57600092611512575b50508160011b916000199060031b1c19161760058501555b60c08101518051906001600160401b0382116111bc578190610ea96006880154612ac5565b601f81116114bf575b50602090601f831160011461144d57600092611442575b50508160011b916000199060031b1c19161760068501555b60e08101518051906001600160401b0382116111bc578190610f066007880154612ac5565b601f81116113ef575b50602090601f831160011461137d57600092611372575b50508160011b916000199060031b1c19161760078501555b6101008101518051906001600160401b0382116111bc578190610f646008880154612ac5565b601f811161131f575b50602090601f83116001146112ad576000926112a2575b50508160011b916000199060031b1c19161760088501555b6101208101518051906001600160401b0382116111bc578190610fc26009880154612ac5565b601f811161124f575b50602090601f83116001146111dd576000926111d2575b50508160011b916000199060031b1c19161760098501555b610140810151600a8501556101608101519384516001600160401b0381116111bc57611029600b830154612ac5565b95601f8711611175575b602096508690601f831160011461110657600e939291600091836110fb575b50508160011b916000199060031b1c191617600b8201555b610180830151600c8201556101a0830151600d820155019060018060a01b036101c0820151168254916101e060ff60a01b910151151560a01b16916affffffffffffffffffffff60a81b1617179055817fa9d6e7398f33dc0116a8f8a1356e538fdc374e3092fc8d966e88b541f9b1e125604051858152806110f0339588830190612c1a565b0390a3604051908152f35b015190508880611052565b90601f19831691600b8501600052886000209260005b81811061115e5750916001939185600e97969410611145575b505050811b01600b82015561106a565b015160001960f88460031b161c19169055888080611135565b92938a60018192878601518155019501930161111c565b600b83016000526020600020601f830160051c8101602084106111b5575b601f890160051c820181106111a9575050611033565b60008155600101611193565b5080611193565b634e487b7160e01b600052604160045260246000fd5b015190508680610fe2565b9250600987016000526020600020906000935b601f1984168510611234576001945083601f1981161061121b575b505050811b016009850155610ffa565b015160001960f88460031b161c1916905586808061120b565b818101518355602094850194600190930192909101906111f0565b909150600987016000526020600020601f840160051c81016020851061129b575b90849392915b601f830160051c8201811061128c575050610fcb565b60008155859450600101611276565b5080611270565b015190508680610f84565b9250600887016000526020600020906000935b601f1984168510611304576001945083601f198116106112eb575b505050811b016008850155610f9c565b015160001960f88460031b161c191690558680806112db565b818101518355602094850194600190930192909101906112c0565b909150600887016000526020600020601f840160051c81016020851061136b575b90849392915b601f830160051c8201811061135c575050610f6d565b60008155859450600101611346565b5080611340565b015190508680610f26565b9250600787016000526020600020906000935b601f19841685106113d4576001945083601f198116106113bb575b505050811b016007850155610f3e565b015160001960f88460031b161c191690558680806113ab565b81810151835560209485019460019093019290910190611390565b909150600787016000526020600020601f840160051c81016020851061143b575b90849392915b601f830160051c8201811061142c575050610f0f565b60008155859450600101611416565b5080611410565b015190508680610ec9565b9250600687016000526020600020906000935b601f19841685106114a4576001945083601f1981161061148b575b505050811b016006850155610ee1565b015160001960f88460031b161c1916905586808061147b565b81810151835560209485019460019093019290910190611460565b909150600687016000526020600020601f840160051c81016020851061150b575b90849392915b601f830160051c820181106114fc575050610eb2565b600081558594506001016114e6565b50806114e0565b015190508680610e6c565b9250600587016000526020600020906000935b601f1984168510611574576001945083601f1981161061155b575b505050811b016005850155610e84565b015160001960f88460031b161c1916905586808061154b565b81810151835560209485019460019093019290910190611530565b909150600587016000526020600020601f840160051c8101602085106115db575b90849392915b601f830160051c820181106115cc575050610e55565b600081558594506001016115b6565b50806115b0565b015190508680610e0f565b9250600487016000526020600020906000935b601f1984168510611644576001945083601f1981161061162b575b505050811b016004850155610e27565b015160001960f88460031b161c1916905586808061161b565b81810151835560209485019460019093019290910190611600565b909150600487016000526020600020601f840160051c8101602085106116ab575b90849392915b601f830160051c8201811061169c575050610df8565b60008155859450600101611686565b5080611680565b015190508680610db2565b9250600387016000526020600020906000935b601f1984168510611714576001945083601f198116106116fb575b505050811b016003850155610dca565b015160001960f88460031b161c191690558680806116eb565b818101518355602094850194600190930192909101906116d0565b909150600387016000526020600020601f840160051c81016020851061177b575b90849392915b601f830160051c8201811061176c575050610d9b565b60008155859450600101611756565b5080611750565b015190508680610d4b565b9250600187016000526020600020906000935b601f19841685106117e4576001945083601f198116106117cb575b505050811b016001850155610d63565b015160001960f88460031b161c191690558680806117bb565b818101518355602094850194600190930192909101906117a0565b909150600187016000526020600020601f840160051c81016020851061184b575b90849392915b601f830160051c8201811061183c575050610d34565b60008155859450600101611826565b5080611820565b9098506020813d60201161187e575b8161186e60209383612b53565b8101031261016e5751978a610c7c565b3d9150611861565b6040513d6000823e3d90fd5b3461016e57602036600319011261016e57600435600052600460205260ff6007604060002001541660058110156106a757602090600160405191148152f35b3461016e5760a036600319011261016e576024356001600160a01b038116810361016e576064356001600160401b03811161016e57611914903690600401612c74565b90600435600052600360205260018060a01b03600e60406000200154163303611cf657600435600052600360205260ff600e6040600020015460a01c1615611cb9576001600160a01b03811615611c745760443515611c37576001549061197a82612cf8565b6001556040519261198a84612b1b565b828452600435602085015260018060a01b038216604085015233606085015260443560808501524260a0850152600060c0850152600060e0850152610100840152608435610120840152816000526004602052604060002083518155602084015160018201556002810160018060a01b03604086015116906001600160601b0360a01b9182825416179055600382019060018060a01b03606087015116908254161790556080840151600482015560a0840151600582015560c084015160068201556007810160e085015160058110156106a75760ff801983541691161790556101008401519384516001600160401b0381116111bc57611a8e6008840154612ac5565b95601f8711611bec575b602096508690601f8311600114611b785791806009949261012094600092611b6d575b50508160011b916000199060031b1c19161760088501555b01519101553360005260068352611aee826040600020612d07565b60018060a01b03811660005260068352611b0c826040600020612d07565b600435600081815260038552604090819020600e01805460ff60a01b191690555160843581526001600160a01b039092169183907f80f60d131a7338644bbece1cc75533405ce4384c91e5a4853b154eee7305d75f908690a4604051908152f35b015190508980611abb565b9060088501600052876000209160005b601f1985168110611bd5575092600994926001926101209583601f19811610611bbc575b505050811b016008850155611ad3565b015160001960f88460031b161c19169055898080611bac565b919289600181928685015181550194019201611b88565b600884016000526020600020601f830160051c81019760208410611c2d575b601f0160051c01965b878110611c215750611a98565b60008155600101611c14565b9097508790611c0b565b60405162461bcd60e51b815260206004820152601560248201527424b73b30b634b2103637b0b710323ab930ba34b7b760591b6044820152606490fd5b60405162461bcd60e51b815260206004820152601860248201527f496e76616c696420626f72726f776572206164647265737300000000000000006044820152606490fd5b60405162461bcd60e51b81526020600482015260156024820152744469616d6f6e64206e6f7420617661696c61626c6560581b6044820152606490fd5b60405162461bcd60e51b81526020600482015260116024820152702737ba103234b0b6b7b7321037bbb732b960791b6044820152606490fd5b3461016e5760208060031936011261016e5760043560005260088152604060002090604051908181845491828152019360005281600020916000905b828210611d9257611d8e85611d8281890382612b53565b60405191829182612a8a565b0390f35b835486529485019460019384019390910190611d6b565b3461016e57602036600319011261016e57600435600052600560205260406000208054611d8e600183015492611e3660018060a01b036002830154169160038101546004820154600583015491611e0a600760ff6006870154169501612b74565b95604051998a998a5260208a015260408901526060880152608087015260a086015260c0850190612c5a565b6101008060e0850152830190612c1a565b3461016e57600036600319011261016e576020600154604051908152f35b3461016e57608036600319011261016e576004356044356024356064356001600160401b03811161016e57611e9e903690600401612c74565b9280151580612201575b611eb190612d41565b80600052600460205260406000209360ff6007860154169460058610156106a757611edf6001809714612d7f565b83156121c55760038101546001600160a01b031633141590816121ad575b501561216f5760025493611f1085612cf8565b6002556201518090818102918183041490151715612159574201908142116121595760405191611f3f83612aff565b85835283602084015233604084015284606084015242608084015260a0830152600060c083015260e08201528360005260056020526040600020815181556020820151868201556002810160018060a01b036040840151166001600160601b0360a01b825416179055606082015160038201556080820151600482015560a08201516005820155600681019060c08301519060048210156106a75760e09260079260ff80198354169116179055019101519485516001600160401b0381116111bc5761200b8354612ac5565b601f8111612112575b506020968790601f83116001146120b0579282939183926000946120a5575b50501b916000199060031b1c19161790555b336000526007845261205b836040600020612d07565b8060005260088452612071836040600020612d07565b604051918252827f3f7c2cdea5021ba3a44bd1f2eb0670e2c25f5ee8f4f44abfcb0564a28bdfb342853394a4604051908152f35b015192508980612033565b90601f1983169185600052838a6000209360005b878282106120fa575050106120e1575b505050811b019055612045565b015160001960f88460031b161c191690558780806120d4565b84860151875590950194938c01938692508c016120c4565b836000526020600020601f830160051c8101916020841061214f575b601f0160051c01905b8181106121445750612014565b600081558301612137565b909150819061212e565b634e487b7160e01b600052601160045260246000fd5b60405162461bcd60e51b815260206004820152601660248201527521b0b73737ba103134b21037b71037bbb7103637b0b760511b6044820152606490fd5b600201546001600160a01b0316331415905086611efd565b60405162461bcd60e51b8152602060048201526014602482015273125b9d985b1a59081bd999995c88185b5bdd5b9d60621b6044820152606490fd5b506001548110611ea8565b3461016e57602036600319011261016e576004356000526003602052602060ff600e6040600020015460a01c166040519015158152f35b3461016e5760208060031936011261016e576001600160a01b03612265612a74565b1660005260078152604060002090604051908181845491828152019360005281600020916000905b8282106122a457611d8e85611d8281890382612b53565b83548652948501946001938401939091019061228d565b3461016e57600036600319011261016e576020600254604051908152f35b3461016e57602036600319011261016e5760043580151580612429575b6122ff90612d41565b60008181526004602052604090206003810154336001600160a01b0391821614908115612419575b50156123e357600781019081549160ff831660058110156106a75761239e5760ff19909216600417909155600101546000908152600360205260408120600e01805460ff60a01b1916600160a01b1790557fb71becc91961a6b43bcc5b3b630f3dce02c7fd444cf3738c4f188062b1caf5bc9080a2005b60405162461bcd60e51b815260206004820152601960248201527f43616e6e6f742063616e63656c20616374697665206c6f616e000000000000006044820152606490fd5b60405162461bcd60e51b815260206004820152600e60248201526d139bdd08185d5d1a1bdc9a5e995960921b6044820152606490fd5b6002830154163314905083612327565b5060015481106122f6565b3461016e57604036600319011261016e5760043580151580612596575b61245a90612d41565b600081815260046020526040902060028101546001600160a01b0391908216330361255157600781019081549160ff831660058110156106a757612519576024356009830154036124e257600160039360ff1916179055426006820155015416907f8b6240997bc3af56f5a9aec0408b8286fb78fb0573f2ba96445be3918511cb93600080a3005b60405162461bcd60e51b815260206004820152600f60248201526e496e76616c696420515220636f646560881b6044820152606490fd5b60405162461bcd60e51b815260206004820152601060248201526f4c6f616e206e6f742070656e64696e6760801b6044820152606490fd5b60405162461bcd60e51b815260206004820152601b60248201527f4e6f74207468652064657369676e6174656420626f72726f77657200000000006044820152606490fd5b506001548110612451565b3461016e57602036600319011261016e5760006101206040516125c381612b1b565b8281528260208201528260408201528260608201528260808201528260a08201528260c08201528260e082015260606101008201520152600435600052600460205260406000206040519061261782612b1b565b805482526001810154602083015260028101546001600160a01b03908116604084015260038201541660608301526004810154608083015260058082015460a0840152600682015460c0840152600782015460ff1691908210156106a75760099160e084015261268960088201612b74565b6101008401520154610120820152604051809160208252805160208301526020810151604083015260018060a01b03604082015116606083015260018060a01b036060820151166080830152608081015160a083015260a081015160c083015260c081015160e083015261270660e0820151610100840190612c67565b610100810151610120612726610140928383870152610160860190612c1a565b920151908301520390f35b3461016e5760208060031936011261016e57606060e060405161275381612aff565b600081526000848201526000604082015260008382015260006080820152600060a0820152600060c082015201526004356000526005815260406000206040519061279d82612aff565b80548252600181015483830190815260018060a01b03806002840154166040850190815260038401546060860190815260048501546080870190815260058601549160a0880192835260ff6006880154169460c089019460048710156106a7576128126007611d8e9a61285299895201612b74565b9760e08b019889526040519b8c9b818d5251908c01525160408b0152511660608901525160808801525160a08701525160c08601525160e0850190612c5a565b5161010080840152610120830190612c1a565b3461016e57602036600319011261016e57600435600052600360205260406000208054906001810161289690612b74565b90600281015492600382016128aa90612b74565b916128b760048201612b74565b6128c360058301612b74565b6128cf60068401612b74565b6128db60078501612b74565b6128e760088601612b74565b906128f460098701612b74565b92600a87015494600b880161290890612b74565b96600c8901549a600d8a015499600e01549a6040519e8f9e8f928352610200806020850152830161293891612c1a565b91604001528d808203906060015261294f91612c1a565b8c810360808e015261296091612c1a565b8b810360a08d015261297191612c1a565b8a810360c08c015261298291612c1a565b89810360e08b015261299391612c1a565b8881036101008a01526129a591612c1a565b8781036101208901526129b791612c1a565b906101408701528581036101608701526129d091612c1a565b926101808501526101a0840152600160a01b6001900381166101c084015260a01c60ff1615156101e08301520390f35b3461016e576020908160031936011261016e576001600160a01b03612a23612a74565b166000526006825260406000209182548083528183019360005281600020916000905b828210612a5d57611d8e85611d8281890382612b53565b835486529485019460019384019390910190612a46565b600435906001600160a01b038216820361016e57565b6020908160408183019282815285518094520193019160005b828110612ab1575050505090565b835185529381019392810192600101612aa3565b90600182811c92168015612af5575b6020831014612adf57565b634e487b7160e01b600052602260045260246000fd5b91607f1691612ad4565b61010081019081106001600160401b038211176111bc57604052565b61014081019081106001600160401b038211176111bc57604052565b61020081019081106001600160401b038211176111bc57604052565b90601f801991011681019081106001600160401b038211176111bc57604052565b9060405191826000825492612b8884612ac5565b908184526001948581169081600014612bf75750600114612bb4575b5050612bb292500383612b53565b565b9093915060005260209081600020936000915b818310612bdf575050612bb293508201013880612ba4565b85548884018501529485019487945091830191612bc7565b915050612bb294506020925060ff191682840152151560051b8201013880612ba4565b919082519283825260005b848110612c46575050826000602080949584010152601f8019910116010190565b602081830181015184830182015201612c25565b9060048210156106a75752565b9060058210156106a75752565b81601f8201121561016e578035906001600160401b0382116111bc5760405192612ca8601f8401601f191660200185612b53565b8284526020838301011161016e57816000926020809301838601378301015290565b8054821015612ce25760005260206000200190600090565b634e487b7160e01b600052603260045260246000fd5b60001981146121595760010190565b8054680100000000000000008110156111bc57612d2991600182018155612cca565b819291549060031b91821b91600019901b1916179055565b15612d4857565b60405162461bcd60e51b815260206004820152600f60248201526e125b9d985b1a59081b1bd85b881251608a1b6044820152606490fd5b15612d8657565b60405162461bcd60e51b815260206004820152600f60248201526e4c6f616e206e6f742061637469766560881b6044820152606490fd5b8051821015612ce25760209160051b01019056fea2646970667358221220bfae6c3b4f88081d6519d1aadd4e6490cf3087e4c0f4d93e93584257713ec5ca64736f6c63430008140033",
  "immutableReferences": {},
  "source": "// SPDX-License-Identifier: MIT\r\npragma solidity ^0.8.0;\r\n\r\nimport \"./DiamondNFT.sol\";\r\n\r\ncontract DiamondLending {\r\n    \r\n    // Enums for loan status\r\n    enum LoanStatus { PENDING, ACTIVE, SOLD, RETURNED, CANCELLED }\r\n    enum OfferStatus { PENDING, ACCEPTED, REJECTED, EXPIRED }\r\n    \r\n    // Struct for Diamond details\r\n    struct Diamond {\r\n        uint256 tokenId;\r\n        string certificateNumber;\r\n        uint256 weight; // in carats (multiplied by 100 for precision)\r\n        string shape;\r\n        string color;\r\n        string clarity;\r\n        string cut;\r\n        string polish;\r\n        string symmetry;\r\n        string uv;\r\n        uint256 cost; // in wei or smallest unit\r\n        string supplier;\r\n        uint256 buyingDate;\r\n        uint256 expenses;\r\n        address owner;\r\n        bool isAvailable;\r\n    }\r\n    \r\n    // Struct for Loan Agreement\r\n    struct LoanAgreement {\r\n        uint256 loanId;\r\n        uint256 diamondTokenId;\r\n        address borrower;\r\n        address lender;\r\n        uint256 loanDuration; // in days\r\n        uint256 createdAt;\r\n        uint256 approvedAt;\r\n        LoanStatus status;\r\n        string terms; // Additional terms\r\n        bytes32 qrCodeHash; // Hash of QR code data\r\n    }\r\n    \r\n    // Struct for Sale Offer\r\n    struct SaleOffer {\r\n        uint256 offerId;\r\n        uint256 loanId;\r\n        address buyer;\r\n        uint256 offerAmount;\r\n        uint256 createdAt;\r\n        uint256 expiresAt;\r\n        OfferStatus status;\r\n        string message;\r\n    }\r\n    \r\n    // State variables\r\n    DiamondNFT public diamondNFT;\r\n    uint256 public nextLoanId = 1;\r\n    uint256 public nextOfferId = 1;\r\n    \r\n    // Mappings\r\n    mapping(uint256 => Diamond) public diamonds;\r\n    mapping(uint256 => LoanAgreement) public loans;\r\n    mapping(uint256 => SaleOffer) public offers;\r\n    mapping(address => uint256[]) public userLoans;\r\n    mapping(address => uint256[]) public userOffers;\r\n    mapping(uint256 => uint256[]) public loanOffers; // loanId => offerIds[]\r\n    \r\n    // Events\r\n    event DiamondAdded(uint256 indexed tokenId, address indexed owner, string certificateNumber);\r\n    event LoanRequested(uint256 indexed loanId, uint256 indexed diamondTokenId, address indexed borrower, bytes32 qrCodeHash);\r\n    event LoanApproved(uint256 indexed loanId, address indexed lender);\r\n    event LoanCancelled(uint256 indexed loanId);\r\n    event OfferPlaced(uint256 indexed offerId, uint256 indexed loanId, address indexed buyer, uint256 amount);\r\n    event OfferAccepted(uint256 indexed offerId, uint256 indexed loanId);\r\n    event DiamondSold(uint256 indexed loanId, uint256 indexed offerId, address buyer, uint256 amount);\r\n    event DiamondReturned(uint256 indexed loanId);\r\n    \r\n    // Modifiers\r\n    modifier onlyDiamondOwner(uint256 tokenId) {\r\n        require(diamonds[tokenId].owner == msg.sender, \"Not diamond owner\");\r\n        _;\r\n    }\r\n    \r\n    modifier onlyLoanParticipant(uint256 loanId) {\r\n        require(\r\n            loans[loanId].borrower == msg.sender || loans[loanId].lender == msg.sender,\r\n            \"Not authorized for this loan\"\r\n        );\r\n        _;\r\n    }\r\n    \r\n    modifier validLoan(uint256 loanId) {\r\n        require(loanId > 0 && loanId < nextLoanId, \"Invalid loan ID\");\r\n        _;\r\n    }\r\n    \r\n    constructor(address _diamondNFTAddress) {\r\n        diamondNFT = DiamondNFT(_diamondNFTAddress);\r\n    }\r\n    \r\n    // Add diamond to inventory\r\n    function addDiamond(\r\n        string memory _certificateNumber,\r\n        uint256 _weight,\r\n        string memory _shape,\r\n        string memory _color,\r\n        string memory _clarity,\r\n        string memory _cut,\r\n        string memory _polish,\r\n        string memory _symmetry,\r\n        string memory _uv,\r\n        uint256 _cost,\r\n        string memory _supplier,\r\n        uint256 _buyingDate,\r\n        uint256 _expenses\r\n    ) external returns (uint256) {\r\n        uint256 tokenId = diamondNFT.mintDiamond(msg.sender, _certificateNumber);\r\n        \r\n        diamonds[tokenId] = Diamond({\r\n            tokenId: tokenId,\r\n            certificateNumber: _certificateNumber,\r\n            weight: _weight,\r\n            shape: _shape,\r\n            color: _color,\r\n            clarity: _clarity,\r\n            cut: _cut,\r\n            polish: _polish,\r\n            symmetry: _symmetry,\r\n            uv: _uv,\r\n            cost: _cost,\r\n            supplier: _supplier,\r\n            buyingDate: _buyingDate,\r\n            expenses: _expenses,\r\n            owner: msg.sender,\r\n            isAvailable: true\r\n        });\r\n        \r\n        emit DiamondAdded(tokenId, msg.sender, _certificateNumber);\r\n        return tokenId;\r\n    }\r\n    \r\n    // Create a loan request (seller initiates)\r\n    function createLoanRequest(\r\n        uint256 _diamondTokenId,\r\n        address _borrower,\r\n        uint256 _loanDuration,\r\n        string memory _terms,\r\n        bytes32 _qrCodeHash\r\n    ) external onlyDiamondOwner(_diamondTokenId) returns (uint256) {\r\n        require(diamonds[_diamondTokenId].isAvailable, \"Diamond not available\");\r\n        require(_borrower != address(0), \"Invalid borrower address\");\r\n        require(_loanDuration > 0, \"Invalid loan duration\");\r\n        \r\n        uint256 loanId = nextLoanId++;\r\n        \r\n        loans[loanId] = LoanAgreement({\r\n            loanId: loanId,\r\n            diamondTokenId: _diamondTokenId,\r\n            borrower: _borrower,\r\n            lender: msg.sender,\r\n            loanDuration: _loanDuration,\r\n            createdAt: block.timestamp,\r\n            approvedAt: 0,\r\n            status: LoanStatus.PENDING,\r\n            terms: _terms,\r\n            qrCodeHash: _qrCodeHash\r\n        });\r\n        \r\n        userLoans[msg.sender].push(loanId);\r\n        userLoans[_borrower].push(loanId);\r\n        \r\n        // Mark diamond as temporarily unavailable\r\n        diamonds[_diamondTokenId].isAvailable = false;\r\n        \r\n        emit LoanRequested(loanId, _diamondTokenId, _borrower, _qrCodeHash);\r\n        return loanId;\r\n    }\r\n    \r\n    // Approve loan request (borrower approves via QR scan)\r\n    function approveLoanRequest(uint256 _loanId, bytes32 _qrCodeHash) \r\n        external \r\n        validLoan(_loanId) \r\n    {\r\n        LoanAgreement storage loan = loans[_loanId];\r\n        require(loan.borrower == msg.sender, \"Not the designated borrower\");\r\n        require(loan.status == LoanStatus.PENDING, \"Loan not pending\");\r\n        require(loan.qrCodeHash == _qrCodeHash, \"Invalid QR code\");\r\n        \r\n        loan.status = LoanStatus.ACTIVE;\r\n        loan.approvedAt = block.timestamp;\r\n        \r\n        emit LoanApproved(_loanId, loan.lender);\r\n    }\r\n    \r\n    // Cancel loan request\r\n    function cancelLoanRequest(uint256 _loanId) \r\n        external \r\n        validLoan(_loanId) \r\n    {\r\n        LoanAgreement storage loan = loans[_loanId];\r\n        require(\r\n            loan.lender == msg.sender || loan.borrower == msg.sender,\r\n            \"Not authorized\"\r\n        );\r\n        require(loan.status == LoanStatus.PENDING, \"Cannot cancel active loan\");\r\n        \r\n        loan.status = LoanStatus.CANCELLED;\r\n        diamonds[loan.diamondTokenId].isAvailable = true;\r\n        \r\n        emit LoanCancelled(_loanId);\r\n    }\r\n    \r\n    // Place a bid/offer on borrowed diamond\r\n    function placeOffer(\r\n        uint256 _loanId,\r\n        uint256 _offerAmount,\r\n        uint256 _expirationDays,\r\n        string memory _message\r\n    ) external validLoan(_loanId) returns (uint256) {\r\n        LoanAgreement storage loan = loans[_loanId];\r\n        require(loan.status == LoanStatus.ACTIVE, \"Loan not active\");\r\n        require(_offerAmount > 0, \"Invalid offer amount\");\r\n        require(msg.sender != loan.lender && msg.sender != loan.borrower, \"Cannot bid on own loan\");\r\n        \r\n        uint256 offerId = nextOfferId++;\r\n        \r\n        offers[offerId] = SaleOffer({\r\n            offerId: offerId,\r\n            loanId: _loanId,\r\n            buyer: msg.sender,\r\n            offerAmount: _offerAmount,\r\n            createdAt: block.timestamp,\r\n            expiresAt: block.timestamp + (_expirationDays * 1 days),\r\n            status: OfferStatus.PENDING,\r\n            message: _message\r\n        });\r\n        \r\n        userOffers[msg.sender].push(offerId);\r\n        loanOffers[_loanId].push(offerId);\r\n        \r\n        emit OfferPlaced(offerId, _loanId, msg.sender, _offerAmount);\r\n        return offerId;\r\n    }\r\n    \r\n    // Accept an offer (lender accepts)\r\n    function acceptOffer(uint256 _offerId) external {\r\n        SaleOffer storage offer = offers[_offerId];\r\n        LoanAgreement storage loan = loans[offer.loanId];\r\n        \r\n        require(loan.lender == msg.sender, \"Only lender can accept offers\");\r\n        require(offer.status == OfferStatus.PENDING, \"Offer not pending\");\r\n        require(block.timestamp <= offer.expiresAt, \"Offer expired\");\r\n        require(loan.status == LoanStatus.ACTIVE, \"Loan not active\");\r\n        \r\n        offer.status = OfferStatus.ACCEPTED;\r\n        loan.status = LoanStatus.SOLD;\r\n        \r\n        // Transfer diamond ownership to buyer\r\n        diamonds[loan.diamondTokenId].owner = offer.buyer;\r\n        diamonds[loan.diamondTokenId].isAvailable = false; // Sold diamond\r\n        \r\n        // Reject all other pending offers for this loan\r\n        _rejectOtherOffers(offer.loanId, _offerId);\r\n        \r\n        emit OfferAccepted(_offerId, offer.loanId);\r\n        emit DiamondSold(offer.loanId, _offerId, offer.buyer, offer.offerAmount);\r\n    }\r\n    \r\n    // Return diamond (both parties confirm)\r\n    function returnDiamond(uint256 _loanId) \r\n        external \r\n        validLoan(_loanId) \r\n        onlyLoanParticipant(_loanId) \r\n    {\r\n        LoanAgreement storage loan = loans[_loanId];\r\n        require(loan.status == LoanStatus.ACTIVE, \"Loan not active\");\r\n        \r\n        loan.status = LoanStatus.RETURNED;\r\n        diamonds[loan.diamondTokenId].isAvailable = true;\r\n        \r\n        // Reject all pending offers for this loan\r\n        _rejectAllOffers(loan.loanId);\r\n        \r\n        emit DiamondReturned(_loanId);\r\n    }\r\n    \r\n    // Internal function to reject other offers\r\n    function _rejectOtherOffers(uint256 _loanId, uint256 _acceptedOfferId) internal {\r\n        uint256[] memory offerIds = loanOffers[_loanId];\r\n        for (uint256 i = 0; i < offerIds.length; i++) {\r\n            if (offerIds[i] != _acceptedOfferId && offers[offerIds[i]].status == OfferStatus.PENDING) {\r\n                offers[offerIds[i]].status = OfferStatus.REJECTED;\r\n            }\r\n        }\r\n    }\r\n    \r\n    // Internal function to reject all offers\r\n    function _rejectAllOffers(uint256 _loanId) internal {\r\n        uint256[] memory offerIds = loanOffers[_loanId];\r\n        for (uint256 i = 0; i < offerIds.length; i++) {\r\n            if (offers[offerIds[i]].status == OfferStatus.PENDING) {\r\n                offers[offerIds[i]].status = OfferStatus.REJECTED;\r\n            }\r\n        }\r\n    }\r\n    \r\n    // View functions\r\n    function getDiamond(uint256 _tokenId) external view returns (Diamond memory) {\r\n        return diamonds[_tokenId];\r\n    }\r\n    \r\n    function getLoan(uint256 _loanId) external view returns (LoanAgreement memory) {\r\n        return loans[_loanId];\r\n    }\r\n    \r\n    function getOffer(uint256 _offerId) external view returns (SaleOffer memory) {\r\n        return offers[_offerId];\r\n    }\r\n    \r\n    function getUserLoans(address _user) external view returns (uint256[] memory) {\r\n        return userLoans[_user];\r\n    }\r\n    \r\n    function getUserOffers(address _user) external view returns (uint256[] memory) {\r\n        return userOffers[_user];\r\n    }\r\n    \r\n    function getLoanOffers(uint256 _loanId) external view returns (uint256[] memory) {\r\n        return loanOffers[_loanId];\r\n    }\r\n    \r\n    function isLoanActive(uint256 _loanId) external view returns (bool) {\r\n        return loans[_loanId].status == LoanStatus.ACTIVE;\r\n    }\r\n    \r\n    function isDiamondAvailable(uint256 _tokenId) external view returns (bool) {\r\n        return diamonds[_tokenId].isAvailable;\r\n    }\r\n}",
  "sourcePath": "C:\\Users\\ronig\\Diamond-Zone\\blockchain\\contracts\\DiamondLending.sol",
  "compiler": {
    "name": "solc",
    "version": "0.8.20+commit.a1b79de6.Emscripten.clang"
  },
  "schemaVersion": "3.4.16",
  "updatedAt": "2025-06-09T09:28:57.209Z",
  "devdoc": {
    "kind": "dev",
    "methods": {},
    "version": 1
  },
  "userdoc": {
    "kind": "user",
    "methods": {},
    "version": 1
  }
}